{
  "address": "0x09175d0d14878670BA21b993cBf080A5c7bB18af",
  "abi": [
    {
      "inputs": [],
      "stateMutability": "nonpayable",
      "type": "constructor"
    },
    {
      "anonymous": false,
      "inputs": [
        {
          "indexed": true,
          "internalType": "address",
          "name": "sender",
          "type": "address"
        },
        {
          "indexed": true,
          "internalType": "uint256",
          "name": "transactionId",
          "type": "uint256"
        }
      ],
      "name": "Confirmation",
      "type": "event"
    },
    {
      "anonymous": false,
      "inputs": [
        {
          "indexed": true,
          "internalType": "address",
          "name": "sender",
          "type": "address"
        },
        {
          "indexed": false,
          "internalType": "uint256",
          "name": "value",
          "type": "uint256"
        }
      ],
      "name": "Deposit",
      "type": "event"
    },
    {
      "anonymous": false,
      "inputs": [
        {
          "indexed": true,
          "internalType": "uint256",
          "name": "transactionId",
          "type": "uint256"
        }
      ],
      "name": "Execution",
      "type": "event"
    },
    {
      "anonymous": false,
      "inputs": [
        {
          "indexed": true,
          "internalType": "uint256",
          "name": "transactionId",
          "type": "uint256"
        }
      ],
      "name": "ExecutionFailure",
      "type": "event"
    },
    {
      "anonymous": false,
      "inputs": [
        {
          "indexed": true,
          "internalType": "address",
          "name": "owner",
          "type": "address"
        }
      ],
      "name": "OwnerAddition",
      "type": "event"
    },
    {
      "anonymous": false,
      "inputs": [
        {
          "indexed": true,
          "internalType": "address",
          "name": "owner",
          "type": "address"
        }
      ],
      "name": "OwnerRemoval",
      "type": "event"
    },
    {
      "anonymous": false,
      "inputs": [
        {
          "indexed": false,
          "internalType": "address",
          "name": "user",
          "type": "address"
        },
        {
          "indexed": false,
          "internalType": "uint256",
          "name": "amount",
          "type": "uint256"
        }
      ],
      "name": "Released",
      "type": "event"
    },
    {
      "anonymous": false,
      "inputs": [
        {
          "indexed": false,
          "internalType": "uint256",
          "name": "required",
          "type": "uint256"
        }
      ],
      "name": "RequirementChange",
      "type": "event"
    },
    {
      "anonymous": false,
      "inputs": [
        {
          "indexed": true,
          "internalType": "address",
          "name": "sender",
          "type": "address"
        },
        {
          "indexed": true,
          "internalType": "uint256",
          "name": "transactionId",
          "type": "uint256"
        }
      ],
      "name": "Revocation",
      "type": "event"
    },
    {
      "anonymous": false,
      "inputs": [
        {
          "indexed": true,
          "internalType": "uint256",
          "name": "transactionId",
          "type": "uint256"
        }
      ],
      "name": "Submission",
      "type": "event"
    },
    {
      "stateMutability": "payable",
      "type": "fallback"
    },
    {
      "inputs": [],
      "name": "MAX_OWNER_COUNT",
      "outputs": [
        {
          "internalType": "uint256",
          "name": "",
          "type": "uint256"
        }
      ],
      "stateMutability": "view",
      "type": "function"
    },
    {
      "inputs": [],
      "name": "_token",
      "outputs": [
        {
          "internalType": "address",
          "name": "",
          "type": "address"
        }
      ],
      "stateMutability": "view",
      "type": "function"
    },
    {
      "inputs": [
        {
          "internalType": "address",
          "name": "owner",
          "type": "address"
        }
      ],
      "name": "addOwner",
      "outputs": [],
      "stateMutability": "nonpayable",
      "type": "function"
    },
    {
      "inputs": [
        {
          "internalType": "uint256",
          "name": "_required",
          "type": "uint256"
        }
      ],
      "name": "changeRequirement",
      "outputs": [],
      "stateMutability": "nonpayable",
      "type": "function"
    },
    {
      "inputs": [
        {
          "internalType": "uint256",
          "name": "transactionId",
          "type": "uint256"
        }
      ],
      "name": "confirmTransaction",
      "outputs": [],
      "stateMutability": "nonpayable",
      "type": "function"
    },
    {
      "inputs": [
        {
          "internalType": "uint256",
          "name": "",
          "type": "uint256"
        },
        {
          "internalType": "address",
          "name": "",
          "type": "address"
        }
      ],
      "name": "confirmations",
      "outputs": [
        {
          "internalType": "bool",
          "name": "",
          "type": "bool"
        }
      ],
      "stateMutability": "view",
      "type": "function"
    },
    {
      "inputs": [
        {
          "internalType": "uint256",
          "name": "transactionId",
          "type": "uint256"
        }
      ],
      "name": "executeTransaction",
      "outputs": [],
      "stateMutability": "nonpayable",
      "type": "function"
    },
    {
      "inputs": [
        {
          "internalType": "uint256",
          "name": "transactionId",
          "type": "uint256"
        }
      ],
      "name": "getConfirmationCount",
      "outputs": [
        {
          "internalType": "uint256",
          "name": "count",
          "type": "uint256"
        }
      ],
      "stateMutability": "view",
      "type": "function"
    },
    {
      "inputs": [
        {
          "internalType": "uint256",
          "name": "transactionId",
          "type": "uint256"
        }
      ],
      "name": "getConfirmations",
      "outputs": [
        {
          "internalType": "address[]",
          "name": "_confirmations",
          "type": "address[]"
        }
      ],
      "stateMutability": "view",
      "type": "function"
    },
    {
      "inputs": [],
      "name": "getOwners",
      "outputs": [
        {
          "internalType": "address[]",
          "name": "",
          "type": "address[]"
        }
      ],
      "stateMutability": "view",
      "type": "function"
    },
    {
      "inputs": [
        {
          "internalType": "bool",
          "name": "pending",
          "type": "bool"
        },
        {
          "internalType": "bool",
          "name": "executed",
          "type": "bool"
        }
      ],
      "name": "getTransactionCount",
      "outputs": [
        {
          "internalType": "uint256",
          "name": "count",
          "type": "uint256"
        }
      ],
      "stateMutability": "view",
      "type": "function"
    },
    {
      "inputs": [
        {
          "internalType": "uint256",
          "name": "from",
          "type": "uint256"
        },
        {
          "internalType": "uint256",
          "name": "to",
          "type": "uint256"
        },
        {
          "internalType": "bool",
          "name": "pending",
          "type": "bool"
        },
        {
          "internalType": "bool",
          "name": "executed",
          "type": "bool"
        }
      ],
      "name": "getTransactionIds",
      "outputs": [
        {
          "internalType": "uint256[]",
          "name": "_transactionIds",
          "type": "uint256[]"
        }
      ],
      "stateMutability": "view",
      "type": "function"
    },
    {
      "inputs": [
        {
          "internalType": "address[]",
          "name": "_owners",
          "type": "address[]"
        },
        {
          "internalType": "address",
          "name": "token",
          "type": "address"
        }
      ],
      "name": "initialize",
      "outputs": [],
      "stateMutability": "nonpayable",
      "type": "function"
    },
    {
      "inputs": [
        {
          "internalType": "uint256",
          "name": "transactionId",
          "type": "uint256"
        }
      ],
      "name": "isConfirmed",
      "outputs": [
        {
          "internalType": "bool",
          "name": "",
          "type": "bool"
        }
      ],
      "stateMutability": "view",
      "type": "function"
    },
    {
      "inputs": [
        {
          "internalType": "address",
          "name": "",
          "type": "address"
        }
      ],
      "name": "isOwner",
      "outputs": [
        {
          "internalType": "bool",
          "name": "",
          "type": "bool"
        }
      ],
      "stateMutability": "view",
      "type": "function"
    },
    {
      "inputs": [
        {
          "internalType": "uint256",
          "name": "",
          "type": "uint256"
        }
      ],
      "name": "owners",
      "outputs": [
        {
          "internalType": "address",
          "name": "",
          "type": "address"
        }
      ],
      "stateMutability": "view",
      "type": "function"
    },
    {
      "inputs": [
        {
          "internalType": "address",
          "name": "_beneficiary",
          "type": "address"
        },
        {
          "internalType": "uint256",
          "name": "_amount",
          "type": "uint256"
        }
      ],
      "name": "release",
      "outputs": [],
      "stateMutability": "nonpayable",
      "type": "function"
    },
    {
      "inputs": [
        {
          "internalType": "address",
          "name": "owner",
          "type": "address"
        }
      ],
      "name": "removeOwner",
      "outputs": [],
      "stateMutability": "nonpayable",
      "type": "function"
    },
    {
      "inputs": [
        {
          "internalType": "address",
          "name": "owner",
          "type": "address"
        },
        {
          "internalType": "address",
          "name": "newOwner",
          "type": "address"
        }
      ],
      "name": "replaceOwner",
      "outputs": [],
      "stateMutability": "nonpayable",
      "type": "function"
    },
    {
      "inputs": [],
      "name": "required",
      "outputs": [
        {
          "internalType": "uint256",
          "name": "",
          "type": "uint256"
        }
      ],
      "stateMutability": "view",
      "type": "function"
    },
    {
      "inputs": [
        {
          "internalType": "uint256",
          "name": "transactionId",
          "type": "uint256"
        }
      ],
      "name": "revokeConfirmation",
      "outputs": [],
      "stateMutability": "nonpayable",
      "type": "function"
    },
    {
      "inputs": [
        {
          "internalType": "address",
          "name": "destination",
          "type": "address"
        },
        {
          "internalType": "uint256",
          "name": "value",
          "type": "uint256"
        },
        {
          "internalType": "bytes",
          "name": "data",
          "type": "bytes"
        }
      ],
      "name": "submitTransaction",
      "outputs": [
        {
          "internalType": "uint256",
          "name": "transactionId",
          "type": "uint256"
        }
      ],
      "stateMutability": "nonpayable",
      "type": "function"
    },
    {
      "inputs": [],
      "name": "transactionCount",
      "outputs": [
        {
          "internalType": "uint256",
          "name": "",
          "type": "uint256"
        }
      ],
      "stateMutability": "view",
      "type": "function"
    },
    {
      "inputs": [
        {
          "internalType": "uint256",
          "name": "",
          "type": "uint256"
        }
      ],
      "name": "transactions",
      "outputs": [
        {
          "internalType": "address",
          "name": "destination",
          "type": "address"
        },
        {
          "internalType": "uint256",
          "name": "value",
          "type": "uint256"
        },
        {
          "internalType": "bytes",
          "name": "data",
          "type": "bytes"
        },
        {
          "internalType": "bool",
          "name": "executed",
          "type": "bool"
        }
      ],
      "stateMutability": "view",
      "type": "function"
    },
    {
      "stateMutability": "payable",
      "type": "receive"
    }
  ],
  "transactionHash": "0x16d15a24716cb589d3041943738d0f971fb955b89da1ea41c494e501951ec6bd",
  "args": [],
  "numDeployments": 1,
  "solcInputHash": "863db28ddffdf3ff41cc4189a4caa3e4",
  "bytecode": "0x60a060405234801561001057600080fd5b5033606081901b608052611f0561003260003960006109770152611f056000f3fe60806040526004361061014f5760003560e01c8063a0e67e2b116100b6578063c64274741161006f578063c642747414610486578063d74f8edd146104a6578063dc8452cd146104bb578063e20056e6146104d1578063ecd0c0c3146104f1578063ee22610b1461051157610193565b8063a0e67e2b146103c1578063a8abe69a146103e3578063b5dc40c314610410578063b77bf60014610430578063ba51a6df14610446578063c01a8c841461046657610193565b8063462d0b2e11610108578063462d0b2e146102e357806354741525146103035780637065cb4814610331578063784547a7146103515780638b51d13f146103715780639ace38c21461039157610193565b8063025e7c27146101cb5780630357371d14610208578063173825d91461022857806320ea8d86146102485780632f54bf6e146102685780633411c81c146102a857610193565b366101935734156101915760405134815233907fe1fffcc4923d04b559f4d29a8bfc6cda04eb5b0d3c460751c2402c5c5cc9109c906020015b60405180910390a25b005b34156101915760405134815233907fe1fffcc4923d04b559f4d29a8bfc6cda04eb5b0d3c460751c2402c5c5cc9109c90602001610188565b3480156101d757600080fd5b506101eb6101e636600461199c565b610531565b6040516001600160a01b0390911681526020015b60405180910390f35b34801561021457600080fd5b506101916102233660046119d1565b61055b565b34801561023457600080fd5b506101916102433660046119fb565b6106ff565b34801561025457600080fd5b5061019161026336600461199c565b6108b6565b34801561027457600080fd5b506102986102833660046119fb565b60026020526000908152604090205460ff1681565b60405190151581526020016101ff565b3480156102b457600080fd5b506102986102c3366004611a16565b600160209081526000928352604080842090915290825290205460ff1681565b3480156102ef57600080fd5b506101916102fe366004611a89565b61096c565b34801561030f57600080fd5b5061032361031e366004611b59565b610a65565b6040519081526020016101ff565b34801561033d57600080fd5b5061019161034c3660046119fb565b610ae2565b34801561035d57600080fd5b5061029861036c36600461199c565b610bfb565b34801561037d57600080fd5b5061032361038c36600461199c565b610c9a565b34801561039d57600080fd5b506103b16103ac36600461199c565b610d20565b6040516101ff9493929190611b92565b3480156103cd57600080fd5b506103d6610dde565b6040516101ff9190611c0e565b3480156103ef57600080fd5b506104036103fe366004611c5b565b610e40565b6040516101ff9190611ca5565b34801561041c57600080fd5b506103d661042b36600461199c565b610fd8565b34801561043c57600080fd5b5061032360055481565b34801561045257600080fd5b5061019161046136600461199c565b6111b0565b34801561047257600080fd5b5061019161048136600461199c565b611225565b34801561049257600080fd5b506103236104a1366004611cdd565b6112ec565b3480156104b257600080fd5b50610323603281565b3480156104c757600080fd5b5061032360045481565b3480156104dd57600080fd5b506101916104ec366004611d8c565b61130b565b3480156104fd57600080fd5b506006546101eb906001600160a01b031681565b34801561051d57600080fd5b5061019161052c36600461199c565b61149e565b6003818154811061054157600080fd5b6000918252602090912001546001600160a01b0316905081565b33301461056757600080fd5b6006546040516370a0823160e01b81523060048201526000916001600160a01b0316906370a082319060240160206040518083038186803b1580156105ab57600080fd5b505afa1580156105bf573d6000803e3d6000fd5b505050506040513d601f19601f820116820180604052508101906105e39190611db6565b9050808211156106305760405162461bcd60e51b815260206004820152601360248201527230b6b7bab73a10363a103130b630b731b2a7b360691b60448201526064015b60405180910390fd5b60065460405163a9059cbb60e01b81526001600160a01b038581166004830152602482018590529091169063a9059cbb90604401602060405180830381600087803b15801561067e57600080fd5b505af1158015610692573d6000803e3d6000fd5b505050506040513d601f19601f820116820180604052508101906106b69190611dcf565b50604080516001600160a01b0385168152602081018490527fb21fb52d5749b80f3182f8c6992236b5e5576681880914484d7f4c9b062e619e91015b60405180910390a1505050565b33301461070b57600080fd5b6001600160a01b038116600090815260026020526040902054819060ff1661073257600080fd5b6001600160a01b0382166000908152600260205260408120805460ff191690555b60035461076290600190611e02565b81101561083257826001600160a01b03166003828154811061078657610786611e19565b6000918252602090912001546001600160a01b0316141561082057600380546107b190600190611e02565b815481106107c1576107c1611e19565b600091825260209091200154600380546001600160a01b0390921691839081106107ed576107ed611e19565b9060005260206000200160006101000a8154816001600160a01b0302191690836001600160a01b03160217905550610832565b8061082a81611e2f565b915050610753565b50600380548061084457610844611e4a565b600082815260209020810160001990810180546001600160a01b0319169055019055600354600454111561087e5760035461087e906111b0565b6040516001600160a01b038316907f8001553a916ef2f495d26a907cc54d96ed840d7bda71e73194bf5a9df7a76b9090600090a25050565b3360008181526002602052604090205460ff166108d257600080fd5b60008281526001602090815260408083203380855292529091205483919060ff166108fc57600080fd5b600084815260208190526040902060030154849060ff161561091d57600080fd5b6000858152600160209081526040808320338085529252808320805460ff191690555187927ff6a317157440607f36269043eb55f1287a5a19ba2216afeab88cd46cbcfb88e991a35050505050565b336001600160a01b037f000000000000000000000000000000000000000000000000000000000000000016146109d15760405162461bcd60e51b815260206004820152600a60248201526937b7363c9037bbb732b960b11b6044820152606401610627565b600654600160a01b900460ff1615610a205760405162461bcd60e51b8152602060048201526012602482015271616c726561647920696e697469616c697a6560701b6044820152606401610627565b600060028351610a309190611e60565b9050610a3c8382611661565b50600680546001600160a81b0319166001600160a01b0390921691909117600160a01b17905550565b6000805b600554811015610adb57838015610a92575060008181526020819052604090206003015460ff16155b80610ab65750828015610ab6575060008181526020819052604090206003015460ff165b15610ac957610ac6600183611e82565b91505b80610ad381611e2f565b915050610a69565b5092915050565b333014610aee57600080fd5b6001600160a01b038116600090815260026020526040902054819060ff1615610b1657600080fd5b816001600160a01b038116610b2a57600080fd5b600354610b38906001611e82565b60045460328211158015610b4c5750818111155b8015610b5757508015155b8015610b6257508115155b610b6b57600080fd5b6001600160a01b038516600081815260026020526040808220805460ff1916600190811790915560038054918201815583527fc2575a0e9e593c00f959f8c92f12db2869c3395a3b0502d05e2516446f71f85b0180546001600160a01b03191684179055517ff39e6e1eb0edcf53c221607b54b00cd28f3196fed0a24994dc308b8f611b682d9190a25050505050565b600080805b600354811015610c905760008481526001602052604081206003805491929184908110610c2f57610c2f611e19565b60009182526020808320909101546001600160a01b0316835282019290925260400190205460ff1615610c6a57610c67600183611e82565b91505b600454821415610c7e575060019392505050565b80610c8881611e2f565b915050610c00565b5060009392505050565b6000805b600354811015610d1a5760008381526001602052604081206003805491929184908110610ccd57610ccd611e19565b60009182526020808320909101546001600160a01b0316835282019290925260400190205460ff1615610d0857610d05600183611e82565b91505b80610d1281611e2f565b915050610c9e565b50919050565b6000602081905290815260409020805460018201546002830180546001600160a01b03909316939192610d5290611e9a565b80601f0160208091040260200160405190810160405280929190818152602001828054610d7e90611e9a565b8015610dcb5780601f10610da057610100808354040283529160200191610dcb565b820191906000526020600020905b815481529060010190602001808311610dae57829003601f168201915b5050506003909301549192505060ff1684565b60606003805480602002602001604051908101604052809291908181526020018280548015610e3657602002820191906000526020600020905b81546001600160a01b03168152600190910190602001808311610e18575b5050505050905090565b6060600060055467ffffffffffffffff811115610e5f57610e5f611a42565b604051908082528060200260200182016040528015610e88578160200160208202803683370190505b5090506000805b600554811015610f1f57858015610eb8575060008181526020819052604090206003015460ff16155b80610edc5750848015610edc575060008181526020819052604090206003015460ff165b15610f0d5780838381518110610ef457610ef4611e19565b6020908102919091010152610f0a600183611e82565b91505b80610f1781611e2f565b915050610e8f565b610f298888611e02565b67ffffffffffffffff811115610f4157610f41611a42565b604051908082528060200260200182016040528015610f6a578160200160208202803683370190505b5093508790505b86811015610fcd57828181518110610f8b57610f8b611e19565b6020026020010151848983610fa09190611e02565b81518110610fb057610fb0611e19565b602090810291909101015280610fc581611e2f565b915050610f71565b505050949350505050565b60035460609060009067ffffffffffffffff811115610ff957610ff9611a42565b604051908082528060200260200182016040528015611022578160200160208202803683370190505b5090506000805b600354811015611100576000858152600160205260408120600380549192918490811061105857611058611e19565b60009182526020808320909101546001600160a01b0316835282019290925260400190205460ff16156110ee576003818154811061109857611098611e19565b9060005260206000200160009054906101000a90046001600160a01b03168383815181106110c8576110c8611e19565b6001600160a01b03909216602092830291909101909101526110eb600183611e82565b91505b806110f881611e2f565b915050611029565b8167ffffffffffffffff81111561111957611119611a42565b604051908082528060200260200182016040528015611142578160200160208202803683370190505b509350600090505b818110156111a85782818151811061116457611164611e19565b602002602001015184828151811061117e5761117e611e19565b6001600160a01b0390921660209283029190910190910152806111a081611e2f565b91505061114a565b505050919050565b3330146111bc57600080fd5b60035481603282118015906111d15750818111155b80156111dc57508015155b80156111e757508115155b6111f057600080fd5b60048390556040518381527fa3f1ee9126a074d9326c682f561767f710e927faa811f7a99829d49dc421797a906020016106f2565b3360008181526002602052604090205460ff1661124157600080fd5b60008281526020819052604090205482906001600160a01b031661126457600080fd5b60008381526001602090815260408083203380855292529091205484919060ff161561128f57600080fd5b6000858152600160208181526040808420338086529252808420805460ff1916909317909255905187927f4a504a94899432a9846e1aa406dceb1bcfd538bb839071d49d1e5e23f5be30ef91a36112e58561149e565b5050505050565b60006112f9848484611798565b905061130481611225565b9392505050565b33301461131757600080fd5b6001600160a01b038216600090815260026020526040902054829060ff1661133e57600080fd5b6001600160a01b038216600090815260026020526040902054829060ff161561136657600080fd5b60005b60035481101561140457846001600160a01b03166003828154811061139057611390611e19565b6000918252602090912001546001600160a01b031614156113f25783600382815481106113bf576113bf611e19565b9060005260206000200160006101000a8154816001600160a01b0302191690836001600160a01b03160217905550611404565b806113fc81611e2f565b915050611369565b506001600160a01b03808516600081815260026020526040808220805460ff1990811690915593871682528082208054909416600117909355915190917f8001553a916ef2f495d26a907cc54d96ed840d7bda71e73194bf5a9df7a76b9091a26040516001600160a01b038416907ff39e6e1eb0edcf53c221607b54b00cd28f3196fed0a24994dc308b8f611b682d90600090a250505050565b3360008181526002602052604090205460ff166114ba57600080fd5b60008281526001602090815260408083203380855292529091205483919060ff166114e457600080fd5b600084815260208190526040902060030154849060ff161561150557600080fd5b61150e85610bfb565b156112e557600085815260208190526040902060038101805460ff191660019081179091558154908201546002830180546115ec936001600160a01b031692919061155890611e9a565b905084600201805461156990611e9a565b80601f016020809104026020016040519081016040528092919081815260200182805461159590611e9a565b80156115e25780601f106115b7576101008083540402835291602001916115e2565b820191906000526020600020905b8154815290600101906020018083116115c557829003601f168201915b505050505061188b565b156116215760405186907f33e13ecb54c3076d8e8bb8c2881800a4d972b792045ffae98fdf46df365fed7590600090a2611659565b60405186907f526441bb6c1aba3c9a4a6ca1d6545da9c2333c8c48343ef398eb858d72b7923690600090a260038101805460ff191690555b505050505050565b815181603282111580156116755750818111155b801561168057508015155b801561168b57508115155b61169457600080fd5b60005b845181101561177b57600260008683815181106116b6576116b6611e19565b6020908102919091018101516001600160a01b031682528101919091526040016000205460ff16158015611716575060006001600160a01b031685828151811061170257611702611e19565b60200260200101516001600160a01b031614155b61171f57600080fd5b60016002600087848151811061173757611737611e19565b6020908102919091018101516001600160a01b03168252810191909152604001600020805460ff19169115159190911790558061177381611e2f565b915050611697565b50835161178f9060039060208701906118ae565b50505060045550565b6000836001600160a01b0381166117ae57600080fd5b600554604080516080810182526001600160a01b038881168252602080830189815283850189815260006060860181905287815280845295909520845181546001600160a01b03191694169390931783555160018301559251805194965091939092611821926002850192910190611913565b50606091909101516003909101805460ff19169115159190911790556005805460019190600090611853908490611e82565b909155505060405182907fc0ba8fe4b176c1714197d43b9cc6bcf797a4a7461c5fe8d0ef6e184ae7601e5190600090a2509392505050565b6000806040516020840160008287838a8c6187965a03f198975050505050505050565b828054828255906000526020600020908101928215611903579160200282015b8281111561190357825182546001600160a01b0319166001600160a01b039091161782556020909201916001909101906118ce565b5061190f929150611987565b5090565b82805461191f90611e9a565b90600052602060002090601f0160209004810192826119415760008555611903565b82601f1061195a57805160ff1916838001178555611903565b82800160010185558215611903579182015b8281111561190357825182559160200191906001019061196c565b5b8082111561190f5760008155600101611988565b6000602082840312156119ae57600080fd5b5035919050565b80356001600160a01b03811681146119cc57600080fd5b919050565b600080604083850312156119e457600080fd5b6119ed836119b5565b946020939093013593505050565b600060208284031215611a0d57600080fd5b611304826119b5565b60008060408385031215611a2957600080fd5b82359150611a39602084016119b5565b90509250929050565b634e487b7160e01b600052604160045260246000fd5b604051601f8201601f1916810167ffffffffffffffff81118282101715611a8157611a81611a42565b604052919050565b60008060408385031215611a9c57600080fd5b823567ffffffffffffffff80821115611ab457600080fd5b818501915085601f830112611ac857600080fd5b8135602082821115611adc57611adc611a42565b8160051b9250611aed818401611a58565b8281529284018101928181019089851115611b0757600080fd5b948201945b84861015611b2c57611b1d866119b5565b82529482019490820190611b0c565b9650611b3b90508782016119b5565b9450505050509250929050565b8015158114611b5657600080fd5b50565b60008060408385031215611b6c57600080fd5b8235611b7781611b48565b91506020830135611b8781611b48565b809150509250929050565b60018060a01b038516815260006020858184015260806040840152845180608085015260005b81811015611bd45786810183015185820160a001528201611bb8565b81811115611be657600060a083870101525b50601f01601f1916830160a0019150611c059050606083018415159052565b95945050505050565b6020808252825182820181905260009190848201906040850190845b81811015611c4f5783516001600160a01b031683529284019291840191600101611c2a565b50909695505050505050565b60008060008060808587031215611c7157600080fd5b84359350602085013592506040850135611c8a81611b48565b91506060850135611c9a81611b48565b939692955090935050565b6020808252825182820181905260009190848201906040850190845b81811015611c4f57835183529284019291840191600101611cc1565b600080600060608486031215611cf257600080fd5b611cfb846119b5565b92506020808501359250604085013567ffffffffffffffff80821115611d2057600080fd5b818701915087601f830112611d3457600080fd5b813581811115611d4657611d46611a42565b611d58601f8201601f19168501611a58565b91508082528884828501011115611d6e57600080fd5b80848401858401376000848284010152508093505050509250925092565b60008060408385031215611d9f57600080fd5b611da8836119b5565b9150611a39602084016119b5565b600060208284031215611dc857600080fd5b5051919050565b600060208284031215611de157600080fd5b815161130481611b48565b634e487b7160e01b600052601160045260246000fd5b600082821015611e1457611e14611dec565b500390565b634e487b7160e01b600052603260045260246000fd5b6000600019821415611e4357611e43611dec565b5060010190565b634e487b7160e01b600052603160045260246000fd5b600082611e7d57634e487b7160e01b600052601260045260246000fd5b500490565b60008219821115611e9557611e95611dec565b500190565b600181811c90821680611eae57607f821691505b60208210811415610d1a57634e487b7160e01b600052602260045260246000fdfea2646970667358221220faf961c9a868abc4df0b843f6d571ec78269edeff14d85b964fb9b61cf9cf0a564736f6c63430008080033",
  "devdoc": {
    "kind": "dev",
    "methods": {
      "addOwner(address)": {
        "details": "Allows to add a new owner. Transaction has to be sent by wallet.",
        "params": {
          "owner": "Address of new owner."
        }
      },
      "changeRequirement(uint256)": {
        "details": "Allows to change the number of required confirmations. Transaction has to be sent by wallet.",
        "params": {
          "_required": "Number of required confirmations."
        }
      },
      "confirmTransaction(uint256)": {
        "details": "Allows an owner to confirm a transaction.",
        "params": {
          "transactionId": "Transaction ID."
        }
      },
      "executeTransaction(uint256)": {
        "details": "Allows anyone to execute a confirmed transaction.",
        "params": {
          "transactionId": "Transaction ID."
        }
      },
      "getConfirmationCount(uint256)": {
        "details": "Returns number of confirmations of a transaction.",
        "params": {
          "transactionId": "Transaction ID."
        },
        "returns": {
          "count": "Number of confirmations."
        }
      },
      "getConfirmations(uint256)": {
        "details": "Returns array with owner addresses, which confirmed transaction.",
        "params": {
          "transactionId": "Transaction ID."
        },
        "returns": {
          "_confirmations": "Returns array of owner addresses."
        }
      },
      "getOwners()": {
        "details": "Returns list of owners.",
        "returns": {
          "_0": "List of owner addresses."
        }
      },
      "getTransactionCount(bool,bool)": {
        "details": "Returns total number of transactions after filers are applied.",
        "params": {
          "executed": "Include executed transactions.",
          "pending": "Include pending transactions."
        },
        "returns": {
          "count": "Total number of transactions after filters are applied."
        }
      },
      "getTransactionIds(uint256,uint256,bool,bool)": {
        "details": "Returns list of transaction IDs in defined range.",
        "params": {
          "executed": "Include executed transactions.",
          "from": "Index start position of transaction array.",
          "pending": "Include pending transactions.",
          "to": "Index end position of transaction array."
        },
        "returns": {
          "_transactionIds": "Returns array of transaction IDs."
        }
      },
      "isConfirmed(uint256)": {
        "details": "Returns the confirmation status of a transaction.",
        "params": {
          "transactionId": "Transaction ID."
        },
        "returns": {
          "_0": "Confirmation status."
        }
      },
      "removeOwner(address)": {
        "details": "Allows to remove an owner. Transaction has to be sent by wallet.",
        "params": {
          "owner": "Address of owner."
        }
      },
      "replaceOwner(address,address)": {
        "details": "Allows to replace an owner with a new owner. Transaction has to be sent by wallet.",
        "params": {
          "newOwner": "Address of new owner.",
          "owner": "Address of owner to be replaced."
        }
      },
      "revokeConfirmation(uint256)": {
        "details": "Allows an owner to revoke a confirmation for a transaction.",
        "params": {
          "transactionId": "Transaction ID."
        }
      },
      "submitTransaction(address,uint256,bytes)": {
        "details": "Allows an owner to submit and confirm a transaction.",
        "params": {
          "data": "Transaction data payload.",
          "destination": "Transaction target address.",
          "value": "Transaction ether value."
        },
        "returns": {
          "transactionId": "Returns transaction ID."
        }
      }
    },
    "version": 1
  },
  "userdoc": {
    "kind": "user",
    "methods": {},
    "version": 1
  },
  "storageLayout": {
    "storage": [
      {
        "astId": 1452,
        "contract": "contracts/Foundation.sol:Foundation",
        "label": "transactions",
        "offset": 0,
        "slot": "0",
        "type": "t_mapping(t_uint256,t_struct(Transaction)1478_storage)"
      },
      {
        "astId": 1458,
        "contract": "contracts/Foundation.sol:Foundation",
        "label": "confirmations",
        "offset": 0,
        "slot": "1",
        "type": "t_mapping(t_uint256,t_mapping(t_address,t_bool))"
      },
      {
        "astId": 1462,
        "contract": "contracts/Foundation.sol:Foundation",
        "label": "isOwner",
        "offset": 0,
        "slot": "2",
        "type": "t_mapping(t_address,t_bool)"
      },
      {
        "astId": 1465,
        "contract": "contracts/Foundation.sol:Foundation",
        "label": "owners",
        "offset": 0,
        "slot": "3",
        "type": "t_array(t_address)dyn_storage"
      },
      {
        "astId": 1467,
        "contract": "contracts/Foundation.sol:Foundation",
        "label": "required",
        "offset": 0,
        "slot": "4",
        "type": "t_uint256"
      },
      {
        "astId": 1469,
        "contract": "contracts/Foundation.sol:Foundation",
        "label": "transactionCount",
        "offset": 0,
        "slot": "5",
        "type": "t_uint256"
      },
      {
        "astId": 1295,
        "contract": "contracts/Foundation.sol:Foundation",
        "label": "_token",
        "offset": 0,
        "slot": "6",
        "type": "t_address"
      },
      {
        "astId": 1299,
        "contract": "contracts/Foundation.sol:Foundation",
        "label": "_initialize",
        "offset": 20,
        "slot": "6",
        "type": "t_bool"
      }
    ],
    "types": {
      "t_address": {
        "encoding": "inplace",
        "label": "address",
        "numberOfBytes": "20"
      },
      "t_array(t_address)dyn_storage": {
        "base": "t_address",
        "encoding": "dynamic_array",
        "label": "address[]",
        "numberOfBytes": "32"
      },
      "t_bool": {
        "encoding": "inplace",
        "label": "bool",
        "numberOfBytes": "1"
      },
      "t_bytes_storage": {
        "encoding": "bytes",
        "label": "bytes",
        "numberOfBytes": "32"
      },
      "t_mapping(t_address,t_bool)": {
        "encoding": "mapping",
        "key": "t_address",
        "label": "mapping(address => bool)",
        "numberOfBytes": "32",
        "value": "t_bool"
      },
      "t_mapping(t_uint256,t_mapping(t_address,t_bool))": {
        "encoding": "mapping",
        "key": "t_uint256",
        "label": "mapping(uint256 => mapping(address => bool))",
        "numberOfBytes": "32",
        "value": "t_mapping(t_address,t_bool)"
      },
      "t_mapping(t_uint256,t_struct(Transaction)1478_storage)": {
        "encoding": "mapping",
        "key": "t_uint256",
        "label": "mapping(uint256 => struct MultiSigWallet.Transaction)",
        "numberOfBytes": "32",
        "value": "t_struct(Transaction)1478_storage"
      },
      "t_struct(Transaction)1478_storage": {
        "encoding": "inplace",
        "label": "struct MultiSigWallet.Transaction",
        "members": [
          {
            "astId": 1471,
            "contract": "contracts/Foundation.sol:Foundation",
            "label": "destination",
            "offset": 0,
            "slot": "0",
            "type": "t_address"
          },
          {
            "astId": 1473,
            "contract": "contracts/Foundation.sol:Foundation",
            "label": "value",
            "offset": 0,
            "slot": "1",
            "type": "t_uint256"
          },
          {
            "astId": 1475,
            "contract": "contracts/Foundation.sol:Foundation",
            "label": "data",
            "offset": 0,
            "slot": "2",
            "type": "t_bytes_storage"
          },
          {
            "astId": 1477,
            "contract": "contracts/Foundation.sol:Foundation",
            "label": "executed",
            "offset": 0,
            "slot": "3",
            "type": "t_bool"
          }
        ],
        "numberOfBytes": "128"
      },
      "t_uint256": {
        "encoding": "inplace",
        "label": "uint256",
        "numberOfBytes": "32"
      }
    }
  }
}