{
  "address": "0xb78E92a6301dCBA816E95E23bCad7EB0D4829921",
  "abi": [
    {
      "anonymous": false,
      "inputs": [
        {
          "indexed": true,
          "internalType": "address",
          "name": "owner",
          "type": "address"
        },
        {
          "indexed": true,
          "internalType": "address",
          "name": "spender",
          "type": "address"
        },
        {
          "indexed": false,
          "internalType": "uint256",
          "name": "value",
          "type": "uint256"
        }
      ],
      "name": "Approval",
      "type": "event"
    },
    {
      "anonymous": false,
      "inputs": [
        {
          "indexed": false,
          "internalType": "address",
          "name": "user",
          "type": "address"
        },
        {
          "indexed": false,
          "internalType": "string",
          "name": "number",
          "type": "string"
        },
        {
          "indexed": false,
          "internalType": "uint256",
          "name": "time",
          "type": "uint256"
        }
      ],
      "name": "ClaimMint",
      "type": "event"
    },
    {
      "anonymous": false,
      "inputs": [
        {
          "indexed": false,
          "internalType": "address",
          "name": "user",
          "type": "address"
        },
        {
          "indexed": false,
          "internalType": "string",
          "name": "number",
          "type": "string"
        },
        {
          "indexed": false,
          "internalType": "uint256",
          "name": "time",
          "type": "uint256"
        }
      ],
      "name": "ClaimMintReward",
      "type": "event"
    },
    {
      "anonymous": false,
      "inputs": [
        {
          "indexed": false,
          "internalType": "string",
          "name": "number",
          "type": "string"
        },
        {
          "indexed": false,
          "internalType": "uint256",
          "name": "heat",
          "type": "uint256"
        },
        {
          "indexed": false,
          "internalType": "uint256",
          "name": "len",
          "type": "uint256"
        }
      ],
      "name": "DegreeHeats",
      "type": "event"
    },
    {
      "anonymous": false,
      "inputs": [
        {
          "indexed": false,
          "internalType": "uint8",
          "name": "version",
          "type": "uint8"
        }
      ],
      "name": "Initialized",
      "type": "event"
    },
    {
      "anonymous": false,
      "inputs": [
        {
          "indexed": true,
          "internalType": "address",
          "name": "user",
          "type": "address"
        },
        {
          "indexed": false,
          "internalType": "uint256",
          "name": "amount",
          "type": "uint256"
        },
        {
          "indexed": false,
          "internalType": "uint256",
          "name": "term",
          "type": "uint256"
        }
      ],
      "name": "Staked",
      "type": "event"
    },
    {
      "anonymous": false,
      "inputs": [
        {
          "indexed": true,
          "internalType": "address",
          "name": "from",
          "type": "address"
        },
        {
          "indexed": true,
          "internalType": "address",
          "name": "to",
          "type": "address"
        },
        {
          "indexed": false,
          "internalType": "uint256",
          "name": "value",
          "type": "uint256"
        }
      ],
      "name": "Transfer",
      "type": "event"
    },
    {
      "anonymous": false,
      "inputs": [
        {
          "indexed": false,
          "internalType": "address",
          "name": "user",
          "type": "address"
        }
      ],
      "name": "UserReceive",
      "type": "event"
    },
    {
      "anonymous": false,
      "inputs": [
        {
          "indexed": false,
          "internalType": "string",
          "name": "number",
          "type": "string"
        },
        {
          "indexed": false,
          "internalType": "uint256",
          "name": "amount",
          "type": "uint256"
        }
      ],
      "name": "UserUnWithDrawEvent",
      "type": "event"
    },
    {
      "anonymous": false,
      "inputs": [
        {
          "indexed": false,
          "internalType": "string",
          "name": "number",
          "type": "string"
        },
        {
          "indexed": false,
          "internalType": "uint256",
          "name": "amount",
          "type": "uint256"
        }
      ],
      "name": "UserWithDrawEvent",
      "type": "event"
    },
    {
      "anonymous": false,
      "inputs": [
        {
          "indexed": true,
          "internalType": "address",
          "name": "user",
          "type": "address"
        },
        {
          "indexed": false,
          "internalType": "uint256",
          "name": "amount",
          "type": "uint256"
        },
        {
          "indexed": false,
          "internalType": "uint256",
          "name": "reward",
          "type": "uint256"
        }
      ],
      "name": "Withdrawn",
      "type": "event"
    },
    {
      "inputs": [],
      "name": "FoundationAddr",
      "outputs": [
        {
          "internalType": "address",
          "name": "",
          "type": "address"
        }
      ],
      "stateMutability": "view",
      "type": "function"
    },
    {
      "inputs": [],
      "name": "Receive",
      "outputs": [],
      "stateMutability": "nonpayable",
      "type": "function"
    },
    {
      "inputs": [],
      "name": "SECONDS_IN_DAY",
      "outputs": [
        {
          "internalType": "uint256",
          "name": "",
          "type": "uint256"
        }
      ],
      "stateMutability": "view",
      "type": "function"
    },
    {
      "inputs": [
        {
          "internalType": "address[]",
          "name": "_users",
          "type": "address[]"
        },
        {
          "internalType": "uint256[]",
          "name": "_withdrawAmounts",
          "type": "uint256[]"
        },
        {
          "internalType": "uint256",
          "name": "_totalUnwithdrawAmounts",
          "type": "uint256"
        },
        {
          "internalType": "uint8[]",
          "name": "vs",
          "type": "uint8[]"
        },
        {
          "internalType": "bytes32[]",
          "name": "rs",
          "type": "bytes32[]"
        },
        {
          "internalType": "bytes32[]",
          "name": "ss",
          "type": "bytes32[]"
        }
      ],
      "name": "SetUserReward",
      "outputs": [],
      "stateMutability": "nonpayable",
      "type": "function"
    },
    {
      "inputs": [],
      "name": "activeMinters",
      "outputs": [
        {
          "internalType": "uint256",
          "name": "",
          "type": "uint256"
        }
      ],
      "stateMutability": "view",
      "type": "function"
    },
    {
      "inputs": [],
      "name": "activeNumbers",
      "outputs": [
        {
          "internalType": "uint256",
          "name": "",
          "type": "uint256"
        }
      ],
      "stateMutability": "view",
      "type": "function"
    },
    {
      "inputs": [],
      "name": "activeStakes",
      "outputs": [
        {
          "internalType": "uint256",
          "name": "",
          "type": "uint256"
        }
      ],
      "stateMutability": "view",
      "type": "function"
    },
    {
      "inputs": [],
      "name": "addSpendNonce",
      "outputs": [],
      "stateMutability": "nonpayable",
      "type": "function"
    },
    {
      "inputs": [
        {
          "internalType": "address",
          "name": "owner",
          "type": "address"
        },
        {
          "internalType": "address",
          "name": "spender",
          "type": "address"
        }
      ],
      "name": "allowance",
      "outputs": [
        {
          "internalType": "uint256",
          "name": "",
          "type": "uint256"
        }
      ],
      "stateMutability": "view",
      "type": "function"
    },
    {
      "inputs": [
        {
          "internalType": "address",
          "name": "spender",
          "type": "address"
        },
        {
          "internalType": "uint256",
          "name": "amount",
          "type": "uint256"
        }
      ],
      "name": "approve",
      "outputs": [
        {
          "internalType": "bool",
          "name": "",
          "type": "bool"
        }
      ],
      "stateMutability": "nonpayable",
      "type": "function"
    },
    {
      "inputs": [],
      "name": "apy",
      "outputs": [
        {
          "internalType": "uint256",
          "name": "",
          "type": "uint256"
        }
      ],
      "stateMutability": "view",
      "type": "function"
    },
    {
      "inputs": [
        {
          "internalType": "address",
          "name": "account",
          "type": "address"
        }
      ],
      "name": "balanceOf",
      "outputs": [
        {
          "internalType": "uint256",
          "name": "",
          "type": "uint256"
        }
      ],
      "stateMutability": "view",
      "type": "function"
    },
    {
      "inputs": [
        {
          "internalType": "string",
          "name": "_number",
          "type": "string"
        }
      ],
      "name": "claimMint",
      "outputs": [],
      "stateMutability": "nonpayable",
      "type": "function"
    },
    {
      "inputs": [],
      "name": "claimMints",
      "outputs": [
        {
          "internalType": "uint256",
          "name": "",
          "type": "uint256"
        }
      ],
      "stateMutability": "view",
      "type": "function"
    },
    {
      "inputs": [
        {
          "internalType": "uint256",
          "name": "",
          "type": "uint256"
        }
      ],
      "name": "dayClaimed",
      "outputs": [
        {
          "internalType": "bool",
          "name": "",
          "type": "bool"
        }
      ],
      "stateMutability": "view",
      "type": "function"
    },
    {
      "inputs": [
        {
          "internalType": "uint256",
          "name": "",
          "type": "uint256"
        }
      ],
      "name": "dayClaims",
      "outputs": [
        {
          "internalType": "uint256",
          "name": "",
          "type": "uint256"
        }
      ],
      "stateMutability": "view",
      "type": "function"
    },
    {
      "inputs": [
        {
          "internalType": "uint256",
          "name": "",
          "type": "uint256"
        }
      ],
      "name": "dayReceived",
      "outputs": [
        {
          "internalType": "uint256",
          "name": "",
          "type": "uint256"
        }
      ],
      "stateMutability": "view",
      "type": "function"
    },
    {
      "inputs": [
        {
          "internalType": "address",
          "name": "",
          "type": "address"
        },
        {
          "internalType": "uint256",
          "name": "",
          "type": "uint256"
        }
      ],
      "name": "dayReceivedAmount",
      "outputs": [
        {
          "internalType": "bool",
          "name": "",
          "type": "bool"
        }
      ],
      "stateMutability": "view",
      "type": "function"
    },
    {
      "inputs": [
        {
          "internalType": "uint256",
          "name": "",
          "type": "uint256"
        }
      ],
      "name": "dayStaked",
      "outputs": [
        {
          "internalType": "uint256",
          "name": "",
          "type": "uint256"
        }
      ],
      "stateMutability": "view",
      "type": "function"
    },
    {
      "inputs": [],
      "name": "daySupply",
      "outputs": [
        {
          "internalType": "uint256",
          "name": "",
          "type": "uint256"
        }
      ],
      "stateMutability": "view",
      "type": "function"
    },
    {
      "inputs": [
        {
          "internalType": "uint256",
          "name": "",
          "type": "uint256"
        }
      ],
      "name": "dayUnStaked",
      "outputs": [
        {
          "internalType": "uint256",
          "name": "",
          "type": "uint256"
        }
      ],
      "stateMutability": "view",
      "type": "function"
    },
    {
      "inputs": [],
      "name": "decimals",
      "outputs": [
        {
          "internalType": "uint8",
          "name": "",
          "type": "uint8"
        }
      ],
      "stateMutability": "view",
      "type": "function"
    },
    {
      "inputs": [
        {
          "internalType": "address",
          "name": "spender",
          "type": "address"
        },
        {
          "internalType": "uint256",
          "name": "subtractedValue",
          "type": "uint256"
        }
      ],
      "name": "decreaseAllowance",
      "outputs": [
        {
          "internalType": "bool",
          "name": "",
          "type": "bool"
        }
      ],
      "stateMutability": "nonpayable",
      "type": "function"
    },
    {
      "inputs": [
        {
          "internalType": "string",
          "name": "",
          "type": "string"
        }
      ],
      "name": "degreeHeats",
      "outputs": [
        {
          "internalType": "uint256",
          "name": "",
          "type": "uint256"
        }
      ],
      "stateMutability": "view",
      "type": "function"
    },
    {
      "inputs": [],
      "name": "destructions",
      "outputs": [
        {
          "internalType": "uint256",
          "name": "",
          "type": "uint256"
        }
      ],
      "stateMutability": "view",
      "type": "function"
    },
    {
      "inputs": [],
      "name": "genesisTs",
      "outputs": [
        {
          "internalType": "uint256",
          "name": "",
          "type": "uint256"
        }
      ],
      "stateMutability": "view",
      "type": "function"
    },
    {
      "inputs": [
        {
          "internalType": "address",
          "name": "_user",
          "type": "address"
        },
        {
          "internalType": "string",
          "name": "_number",
          "type": "string"
        }
      ],
      "name": "getClaimTsAmount",
      "outputs": [
        {
          "internalType": "int256",
          "name": "count",
          "type": "int256"
        },
        {
          "internalType": "uint256",
          "name": "_amount",
          "type": "uint256"
        }
      ],
      "stateMutability": "view",
      "type": "function"
    },
    {
      "inputs": [],
      "name": "getEarthDashboard",
      "outputs": [
        {
          "internalType": "uint256",
          "name": "_totalSupply",
          "type": "uint256"
        },
        {
          "internalType": "uint256",
          "name": "liquidSupply",
          "type": "uint256"
        },
        {
          "internalType": "uint256",
          "name": "destruction",
          "type": "uint256"
        },
        {
          "internalType": "uint256",
          "name": "totalStaked",
          "type": "uint256"
        },
        {
          "internalType": "uint256",
          "name": "treasury",
          "type": "uint256"
        },
        {
          "internalType": "uint256",
          "name": "foundation",
          "type": "uint256"
        }
      ],
      "stateMutability": "view",
      "type": "function"
    },
    {
      "inputs": [],
      "name": "getMeshDashboard",
      "outputs": [
        {
          "internalType": "uint256",
          "name": "participants",
          "type": "uint256"
        },
        {
          "internalType": "uint256",
          "name": "totalclaimMints",
          "type": "uint256"
        },
        {
          "internalType": "uint256",
          "name": "claimedMesh",
          "type": "uint256"
        },
        {
          "internalType": "uint256",
          "name": "maxHeats",
          "type": "uint256"
        },
        {
          "internalType": "uint256",
          "name": "sinceGenesis",
          "type": "uint256"
        }
      ],
      "stateMutability": "view",
      "type": "function"
    },
    {
      "inputs": [],
      "name": "getMeshData",
      "outputs": [
        {
          "internalType": "uint256",
          "name": "userCounts",
          "type": "uint256"
        },
        {
          "internalType": "uint256",
          "name": "launchData",
          "type": "uint256"
        },
        {
          "internalType": "uint256",
          "name": "totalMinted",
          "type": "uint256"
        },
        {
          "internalType": "uint256",
          "name": "liquidSupply",
          "type": "uint256"
        }
      ],
      "stateMutability": "view",
      "type": "function"
    },
    {
      "inputs": [],
      "name": "getNetworkEvents",
      "outputs": [
        {
          "internalType": "uint256",
          "name": "_genesisTs",
          "type": "uint256"
        },
        {
          "internalType": "uint256[]",
          "name": "_received",
          "type": "uint256[]"
        },
        {
          "internalType": "uint256[]",
          "name": "_staked",
          "type": "uint256[]"
        },
        {
          "internalType": "uint256[]",
          "name": "_unstaked",
          "type": "uint256[]"
        }
      ],
      "stateMutability": "view",
      "type": "function"
    },
    {
      "inputs": [
        {
          "internalType": "address",
          "name": "_user",
          "type": "address"
        }
      ],
      "name": "getRewardAmount",
      "outputs": [
        {
          "internalType": "uint256",
          "name": "_userTotalAmount",
          "type": "uint256"
        },
        {
          "internalType": "uint256",
          "name": "_userWithdraw",
          "type": "uint256"
        },
        {
          "internalType": "uint256",
          "name": "_userUnWithdraw",
          "type": "uint256"
        }
      ],
      "stateMutability": "view",
      "type": "function"
    },
    {
      "inputs": [],
      "name": "getSpendNonce",
      "outputs": [
        {
          "internalType": "uint256",
          "name": "",
          "type": "uint256"
        }
      ],
      "stateMutability": "view",
      "type": "function"
    },
    {
      "inputs": [
        {
          "internalType": "address",
          "name": "_user",
          "type": "address"
        }
      ],
      "name": "getStakeInfo",
      "outputs": [
        {
          "internalType": "uint256",
          "name": "tvl",
          "type": "uint256"
        },
        {
          "internalType": "uint256",
          "name": "revenue",
          "type": "uint256"
        },
        {
          "internalType": "uint256",
          "name": "earned",
          "type": "uint256"
        },
        {
          "internalType": "uint256",
          "name": "claimable",
          "type": "uint256"
        },
        {
          "internalType": "uint256",
          "name": "totalApy",
          "type": "uint256"
        },
        {
          "internalType": "uint256",
          "name": "staked",
          "type": "uint256"
        },
        {
          "internalType": "uint256",
          "name": "totalEarnValue",
          "type": "uint256"
        },
        {
          "internalType": "uint256",
          "name": "offEarthStake",
          "type": "uint256"
        }
      ],
      "stateMutability": "view",
      "type": "function"
    },
    {
      "inputs": [
        {
          "internalType": "address",
          "name": "user",
          "type": "address"
        }
      ],
      "name": "getStakeTime",
      "outputs": [
        {
          "internalType": "uint256",
          "name": "ts",
          "type": "uint256"
        }
      ],
      "stateMutability": "view",
      "type": "function"
    },
    {
      "inputs": [
        {
          "internalType": "address",
          "name": "spender",
          "type": "address"
        },
        {
          "internalType": "uint256",
          "name": "addedValue",
          "type": "uint256"
        }
      ],
      "name": "increaseAllowance",
      "outputs": [
        {
          "internalType": "bool",
          "name": "",
          "type": "bool"
        }
      ],
      "stateMutability": "nonpayable",
      "type": "function"
    },
    {
      "inputs": [
        {
          "internalType": "address[]",
          "name": "_owners",
          "type": "address[]"
        },
        {
          "internalType": "uint256",
          "name": "_apy",
          "type": "uint256"
        },
        {
          "internalType": "address",
          "name": "_foundationAddr",
          "type": "address"
        }
      ],
      "name": "initialize",
      "outputs": [],
      "stateMutability": "nonpayable",
      "type": "function"
    },
    {
      "inputs": [],
      "name": "maxMeshHeats",
      "outputs": [
        {
          "internalType": "uint256",
          "name": "",
          "type": "uint256"
        }
      ],
      "stateMutability": "view",
      "type": "function"
    },
    {
      "inputs": [],
      "name": "name",
      "outputs": [
        {
          "internalType": "string",
          "name": "",
          "type": "string"
        }
      ],
      "stateMutability": "view",
      "type": "function"
    },
    {
      "inputs": [
        {
          "internalType": "address",
          "name": "",
          "type": "address"
        }
      ],
      "name": "rankWithdrawAmount",
      "outputs": [
        {
          "internalType": "uint256",
          "name": "",
          "type": "uint256"
        }
      ],
      "stateMutability": "view",
      "type": "function"
    },
    {
      "inputs": [
        {
          "internalType": "uint256",
          "name": "amount",
          "type": "uint256"
        },
        {
          "internalType": "uint256",
          "name": "term",
          "type": "uint256"
        }
      ],
      "name": "stake",
      "outputs": [],
      "stateMutability": "nonpayable",
      "type": "function"
    },
    {
      "inputs": [
        {
          "internalType": "address",
          "name": "",
          "type": "address"
        }
      ],
      "name": "stakeValues",
      "outputs": [
        {
          "internalType": "uint256",
          "name": "",
          "type": "uint256"
        }
      ],
      "stateMutability": "view",
      "type": "function"
    },
    {
      "inputs": [],
      "name": "symbol",
      "outputs": [
        {
          "internalType": "string",
          "name": "",
          "type": "string"
        }
      ],
      "stateMutability": "view",
      "type": "function"
    },
    {
      "inputs": [],
      "name": "totalEarn",
      "outputs": [
        {
          "internalType": "uint256",
          "name": "",
          "type": "uint256"
        }
      ],
      "stateMutability": "view",
      "type": "function"
    },
    {
      "inputs": [],
      "name": "totalNGPStaked",
      "outputs": [
        {
          "internalType": "uint256",
          "name": "",
          "type": "uint256"
        }
      ],
      "stateMutability": "view",
      "type": "function"
    },
    {
      "inputs": [],
      "name": "totalSupply",
      "outputs": [
        {
          "internalType": "uint256",
          "name": "",
          "type": "uint256"
        }
      ],
      "stateMutability": "view",
      "type": "function"
    },
    {
      "inputs": [
        {
          "internalType": "string",
          "name": "",
          "type": "string"
        },
        {
          "internalType": "address",
          "name": "",
          "type": "address"
        }
      ],
      "name": "totalUnWithDraws",
      "outputs": [
        {
          "internalType": "uint256",
          "name": "",
          "type": "uint256"
        }
      ],
      "stateMutability": "view",
      "type": "function"
    },
    {
      "inputs": [
        {
          "internalType": "string",
          "name": "",
          "type": "string"
        },
        {
          "internalType": "address",
          "name": "",
          "type": "address"
        }
      ],
      "name": "totalWithDraws",
      "outputs": [
        {
          "internalType": "uint256",
          "name": "",
          "type": "uint256"
        }
      ],
      "stateMutability": "view",
      "type": "function"
    },
    {
      "inputs": [
        {
          "internalType": "address",
          "name": "to",
          "type": "address"
        },
        {
          "internalType": "uint256",
          "name": "amount",
          "type": "uint256"
        }
      ],
      "name": "transfer",
      "outputs": [
        {
          "internalType": "bool",
          "name": "",
          "type": "bool"
        }
      ],
      "stateMutability": "nonpayable",
      "type": "function"
    },
    {
      "inputs": [
        {
          "internalType": "address",
          "name": "from",
          "type": "address"
        },
        {
          "internalType": "address",
          "name": "to",
          "type": "address"
        },
        {
          "internalType": "uint256",
          "name": "amount",
          "type": "uint256"
        }
      ],
      "name": "transferFrom",
      "outputs": [
        {
          "internalType": "bool",
          "name": "",
          "type": "bool"
        }
      ],
      "stateMutability": "nonpayable",
      "type": "function"
    },
    {
      "inputs": [],
      "name": "treasuryValue",
      "outputs": [
        {
          "internalType": "uint256",
          "name": "",
          "type": "uint256"
        }
      ],
      "stateMutability": "view",
      "type": "function"
    },
    {
      "inputs": [
        {
          "internalType": "address",
          "name": "",
          "type": "address"
        }
      ],
      "name": "unWithDrawAmount",
      "outputs": [
        {
          "internalType": "uint256",
          "name": "",
          "type": "uint256"
        }
      ],
      "stateMutability": "view",
      "type": "function"
    },
    {
      "inputs": [
        {
          "internalType": "address",
          "name": "",
          "type": "address"
        }
      ],
      "name": "unWithdraws",
      "outputs": [
        {
          "internalType": "uint256",
          "name": "",
          "type": "uint256"
        }
      ],
      "stateMutability": "view",
      "type": "function"
    },
    {
      "inputs": [
        {
          "internalType": "string",
          "name": "",
          "type": "string"
        },
        {
          "internalType": "uint256",
          "name": "",
          "type": "uint256"
        }
      ],
      "name": "userApplys",
      "outputs": [
        {
          "internalType": "address",
          "name": "",
          "type": "address"
        }
      ],
      "stateMutability": "view",
      "type": "function"
    },
    {
      "inputs": [
        {
          "internalType": "address",
          "name": "",
          "type": "address"
        },
        {
          "internalType": "string",
          "name": "",
          "type": "string"
        }
      ],
      "name": "userMints",
      "outputs": [
        {
          "internalType": "address",
          "name": "user",
          "type": "address"
        },
        {
          "internalType": "string",
          "name": "number",
          "type": "string"
        },
        {
          "internalType": "uint256",
          "name": "updateTs",
          "type": "uint256"
        },
        {
          "internalType": "uint256",
          "name": "withdrawTs",
          "type": "uint256"
        }
      ],
      "stateMutability": "view",
      "type": "function"
    },
    {
      "inputs": [
        {
          "internalType": "address",
          "name": "",
          "type": "address"
        },
        {
          "internalType": "uint256",
          "name": "",
          "type": "uint256"
        }
      ],
      "name": "userNumbers",
      "outputs": [
        {
          "internalType": "string",
          "name": "",
          "type": "string"
        }
      ],
      "stateMutability": "view",
      "type": "function"
    },
    {
      "inputs": [
        {
          "internalType": "address",
          "name": "",
          "type": "address"
        }
      ],
      "name": "userStakes",
      "outputs": [
        {
          "internalType": "uint256",
          "name": "term",
          "type": "uint256"
        },
        {
          "internalType": "uint256",
          "name": "maturityTs",
          "type": "uint256"
        },
        {
          "internalType": "uint256",
          "name": "amount",
          "type": "uint256"
        }
      ],
      "stateMutability": "view",
      "type": "function"
    },
    {
      "inputs": [
        {
          "internalType": "address",
          "name": "",
          "type": "address"
        }
      ],
      "name": "userWithdraws",
      "outputs": [
        {
          "internalType": "uint256",
          "name": "",
          "type": "uint256"
        }
      ],
      "stateMutability": "view",
      "type": "function"
    },
    {
      "inputs": [
        {
          "internalType": "address",
          "name": "_sender",
          "type": "address"
        },
        {
          "internalType": "uint8[]",
          "name": "vs",
          "type": "uint8[]"
        },
        {
          "internalType": "bytes32[]",
          "name": "rs",
          "type": "bytes32[]"
        },
        {
          "internalType": "bytes32[]",
          "name": "ss",
          "type": "bytes32[]"
        }
      ],
      "name": "validSignature",
      "outputs": [
        {
          "internalType": "bool",
          "name": "",
          "type": "bool"
        }
      ],
      "stateMutability": "view",
      "type": "function"
    },
    {
      "inputs": [],
      "name": "withdraw",
      "outputs": [],
      "stateMutability": "nonpayable",
      "type": "function"
    },
    {
      "inputs": [
        {
          "internalType": "address",
          "name": "",
          "type": "address"
        }
      ],
      "name": "withdrawAmount",
      "outputs": [
        {
          "internalType": "uint256",
          "name": "",
          "type": "uint256"
        }
      ],
      "stateMutability": "view",
      "type": "function"
    }
  ],
  "transactionHash": "0x6f6f6d9dde0f6aa5c3a519047ca88bd73ce6ded3c0260bf06bd514183135fb05",
  "args": [],
  "numDeployments": 1,
  "solcInputHash": "d9879edcaccbfb2f4d22483f4fbe81c7",
  "bytecode": "0x608060405234801561001057600080fd5b5061372e806100206000396000f3fe608060405234801561001057600080fd5b50600436106103af5760003560e01c80637b0472f0116101f4578063c18fab141161011a578063e3af6d0a116100ad578063ed2f23691161007c578063ed2f2369146109a9578063f01d110c146109b2578063f9a18ba5146109bb578063fb1c8b9f146109db57600080fd5b8063e3af6d0a14610928578063e3c41c4e14610931578063e8ca8da314610961578063ebcdbc2d1461098957600080fd5b8063cb48e3c6116100e9578063cb48e3c6146108cc578063cb92ef4a146108ec578063dd62ed3e1461090c578063dffd722f1461091f57600080fd5b8063c18fab141461082e578063c293d09b14610863578063c345315314610876578063c6a2a9f1146108c457600080fd5b80639d0c0f2311610192578063a6a5ff9211610161578063a6a5ff92146107d7578063a9059cbb146107ff578063b4800cdc14610812578063bcfd8dbf1461081b57600080fd5b80639d0c0f23146107935780639f1b3bad146107b3578063a457c2d7146107bb578063a6734715146107ce57600080fd5b80638da7ad23116101ce5780638da7ad231461073b5780638ed4064a1461076a578063903993181461077357806395d89b411461078b57600080fd5b80637b0472f0146106dd578063890d3b27146106f05780638d6b6a591461071b57600080fd5b80633adfe5ea116102d95780634c2346fa1161027757806361a52a361161024657806361a52a36146106755780636e5d82801461067e57806370a08231146106a157806372483bf9146106ca57600080fd5b80634c2346fa146106195780634f4201511461062c5780635cad385c1461064c5780635f7bb9321461065557600080fd5b80633d7af48f116102b35780633d7af48f1461057457806341b23df01461057d57806344a040f5146105ab578063474a2b191461060657600080fd5b80633adfe5ea1461055b5780633bcfc4b8146105635780633ccfd60b1461056c57600080fd5b806318160ddd1161035157806323b872dd1161032057806323b872dd146105065780632c2d0a0c14610519578063313ce56714610539578063395093511461054857600080fd5b806318160ddd1461048f5780631c02b1f4146104975780631dca03bc146104a05780631ea13164146104cb57600080fd5b80630bfbba011161038d5780630bfbba011461040c5780630ffcccff1461041f578063130662401461043f5780631442156f1461045457600080fd5b806306fdde03146103b4578063095ea7b3146103d25780630aedb5ba146103f5575b600080fd5b6103bc6109fe565b6040516103c99190612ca9565b60405180910390f35b6103e56103e0366004612cd8565b610a90565b60405190151581526020016103c9565b6103fe60655481565b6040519081526020016103c9565b6103bc61041a366004612cd8565b610aaa565b6103fe61042d366004612d02565b60836020526000908152604090205481565b61045261044d366004612dd0565b610b63565b005b6103fe610462366004612e0c565b81516020818401810180516089825292820194820194909420919093529091526000908152604090205481565b6035546103fe565b6103fe60765481565b6103fe6104ae366004612dd0565b805160208183018101805160688252928201919093012091525481565b6103fe6104d9366004612e0c565b81516020818401810180516088825292820194820194909420919093529091526000908152604090205481565b6103e5610514366004612e59565b610fc2565b6103fe610527366004612d02565b60856020526000908152604090205481565b604051601281526020016103c9565b6103e5610556366004612cd8565b610fe8565b61045261100a565b6103fe60795481565b610452611021565b6103fe60745481565b6103e561058b366004612cd8565b608a60209081526000928352604080842090915290825290205460ff1681565b6105eb6105b9366004612e95565b6001600160a01b0316600090815260876020908152604080832054606a835281842054606b9093529220549192909190565b604080519384526020840192909252908201526060016103c9565b610452610614366004612ff4565b611229565b6103e56106273660046130d9565b6113fe565b6103fe61063a366004612e95565b606a6020526000908152604090205481565b6103fe60775481565b6103fe610663366004612e95565b60826020526000908152604090205481565b6103fe60785481565b6103e561068c366004612d02565b607f6020526000908152604090205460ff1681565b6103fe6106af366004612e95565b6001600160a01b031660009081526033602052604090205490565b6104526106d8366004613171565b6116e2565b6104526106eb3660046131cd565b61195f565b608154610703906001600160a01b031681565b6040516001600160a01b0390911681526020016103c9565b6103fe610729366004612e95565b60866020526000908152604090205481565b6105eb610749366004612e95565b607d6020526000908152604090208054600182015460029092015490919083565b6103fe607b5481565b61077b611b32565b6040516103c9949392919061322a565b6103bc611ce0565b6103fe6107a1366004612e95565b60876020526000908152604090205481565b610452611cef565b6103e56107c9366004612cd8565b611e85565b6103fe60755481565b6107df611f0b565b6040805194855260208501939093529183015260608201526080016103c9565b6103e561080d366004612cd8565b611f61565b6103fe60735481565b6103fe610829366004612e95565b611f6f565b610836611fb2565b604080519687526020870195909552938501929092526060840152608083015260a082015260c0016103c9565b610703610871366004613274565b612017565b610889610884366004612e95565b61205e565b604080519889526020890197909752958701949094526060860192909252608085015260a084015260c083015260e0820152610100016103c9565b606e546103fe565b6103fe6108da366004612e95565b606b6020526000908152604090205481565b6103fe6108fa366004612d02565b607e6020526000908152604090205481565b6103fe61091a3660046132b8565b61214b565b6103fe607c5481565b6103fe60725481565b610939612176565b604080519586526020860194909452928401919091526060830152608082015260a0016103c9565b61097461096f3660046132e2565b6121a9565b604080519283526020830191909152016103c9565b6103fe610997366004612d02565b60846020526000908152604090205481565b6103fe607a5481565b6103fe60805481565b6103fe6109c9366004612e95565b606c6020526000908152604090205481565b6109ee6109e9366004613364565b612252565b6040516103c994939291906133b1565b606060368054610a0d906133e8565b80601f0160208091040260200160405190810160405280929190818152602001828054610a39906133e8565b8015610a865780601f10610a5b57610100808354040283529160200191610a86565b820191906000526020600020905b815481529060010190602001808311610a6957829003601f168201915b5050505050905090565b600033610a9e818585612329565b60019150505b92915050565b60696020528160005260406000208181548110610ac657600080fd5b90600052602060002001600091509150508054610ae2906133e8565b80601f0160208091040260200160405190810160405280929190818152602001828054610b0e906133e8565b8015610b5b5780601f10610b3057610100808354040283529160200191610b5b565b820191906000526020600020905b815481529060010190602001808311610b3e57829003601f168201915b505050505081565b336000908152606660205260408082209051610b80908490613423565b9081526040805191829003602090810183206080840190925281546001600160a01b0316835260018201805491840191610bb9906133e8565b80601f0160208091040260200160405190810160405280929190818152602001828054610be5906133e8565b8015610c325780601f10610c0757610100808354040283529160200191610c32565b820191906000526020600020905b815481529060010190602001808311610c1557829003601f168201915b505050505081526020016002820154815260200160038201548152505090508060400151600014610caa5760405162461bcd60e51b815260206004820152601e60248201527f6d4e47503a204d696e7420616c726561647920696e2070726f6772657373000060448201526064015b60405180910390fd5b6000606783604051610cbc9190613423565b9081526040519081900360200190205490508015610d30576000600a606885604051610ce89190613423565b908152602001604051809103902054610d019190613455565b90508060776000828254610d159190613477565b90915550508015610d2a57610d2a338261244e565b50610d46565b60748054906000610d408361348f565b91905055505b6020808301849052338084524260408086018290526060860191909152600091825260669092528190209051839190610d80908690613423565b90815260405160209181900382019020825181546001600160a01b0319166001600160a01b039091161781558282015180519192610dc692600185019290910190612bb8565b506040820151816002015560608201518160030155905050606783604051610dee9190613423565b90815260405190819003602090810182208054600181018255600091825291812090910180546001600160a01b0319163317905590606790610e31908690613423565b9081526040519081900360200190205490506000610e5082606461358e565b610e5b83606a61358e565b610e6790611a0b61359a565b610e769064174876e80061359a565b610e809190613455565b905080606886604051610e939190613423565b9081526020016040518091039020819055507fe5c486bee358a5fff5e4d70dc5fdaaf14806df125ffde843a8c40db608264812858284604051610ed8939291906135b9565b60405180910390a1607654811115610ef05760768190555b33600090815260696020908152604082208054600181018255908352918190208751610f23939190910191880190612bb8565b50336000908152606d602052604090205460ff16610f6b5760738054906000610f4b8361348f565b9091555050336000908152606d60205260409020805460ff191660011790555b60758054906000610f7b8361348f565b91905055507f1309ab74031e37b46ee8ce9ff667a17a5c69a500a05d167e4c89ad8b0bc40bf9338642604051610fb3939291906135de565b60405180910390a15050505050565b600033610fd085828561257f565b610fdb8585856125f9565b60019150505b9392505050565b600033610a9e818585610ffb838361214b565b6110059190613477565b612329565b606e805490600061101a8361348f565b9190505550565b336000908152607d6020908152604091829020825160608101845281548152600182015492810192909252600201549181018290529061109a5760405162461bcd60e51b81526020600482015260146024820152734e47503a206e6f207374616b652065786973747360601b6044820152606401610ca1565b42816020015111156110db5760405162461bcd60e51b815260206004820152600a6024820152696d61747572697479547360b01b6044820152606401610ca1565b60006110f48260400151836000015184602001516127a4565b905060008183604001516111089190613477565b905060006078546072544261111d9190613612565b6111279190613455565b3360009081526082602052604081208054929350859290919061114b908490613477565b9250508190555082607c60008282546111649190613477565b9091555050607a805490600061117983613629565b91905055508360400151607b60008282546111949190613612565b9091555050600081815260856020526040812080548492906111b7908490613477565b909155506111c7905033836127e8565b60408085015181519081526020810185905233917f92ccf450a286a957af52509bc1c9939d1a6a481783e142e41e2499f0bb66ebc6910160405180910390a25050336000908152607d6020526040812081815560018101829055600201555050565b336000908152606f602052604090205460ff166112745760405162461bcd60e51b81526020600482015260096024820152683737ba1037bbb732b960b91b6044820152606401610ca1565b611280338484846113fe565b6112c15760405162461bcd60e51b8152602060048201526012602482015271696e76616c6964207369676e61747572657360701b6044820152606401610ca1565b606e546112cf906001613477565b606e55868581146113115760405162461bcd60e51b815260206004820152600c60248201526b0cae4e4dee440d8cadccee8d60a31b6044820152606401610ca1565b60005b8181101561138c5787878281811061132e5761132e613640565b90506020020135606a60008c8c8581811061134b5761134b613640565b90506020020160208101906113609190612e95565b6001600160a01b03168152602081019190915260400160002055806113848161348f565b915050611314565b50846080600082825461139f9190613477565b90915550506081546080546113d5916001600160a01b0316906064906113c690601461359a565b6113d09190613455565b612836565b606460805460506113e6919061359a565b6113f09190613455565b608055505050505050505050565b6000825184511461144a5760405162461bcd60e51b81526020600482015260166024820152750ece65cd8cadccee8d0407a7a40e4e65cd8cadccee8d60531b6044820152606401610ca1565b81518351146114945760405162461bcd60e51b81526020600482015260166024820152750e4e65cd8cadccee8d0407a7a40e6e65cd8cadccee8d60531b6044820152606401610ca1565b607054845111156114e75760405162461bcd60e51b815260206004820152601a60248201527f76732e6c656e677468203c3d206f776e6572732e6c656e6774680000000000006044820152606401610ca1565b607154845110156115325760405162461bcd60e51b81526020600482015260156024820152741d9ccb9b195b99dd1a080f8f481c995c5d5a5c9959605a1b6044820152606401610ca1565b600061153d866128f8565b9050600085516001600160401b0381111561155a5761155a612d1b565b604051908082528060200260200182016040528015611583578160200160208202803683370190505b50905060005b865181101561168d576001838883815181106115a7576115a7613640565b6020026020010151601b6115bb9190613656565b8884815181106115cd576115cd613640565b60200260200101518885815181106115e7576115e7613640565b602002602001015160405160008152602001604052604051611625949392919093845260ff9290921660208401526040830152606082015260800190565b6020604051602081039080840390855afa158015611647573d6000803e3d6000fd5b5050506020604051035182828151811061166357611663613640565b6001600160a01b0390921660209283029190910190910152806116858161348f565b915050611589565b50611697816129ba565b6116d55760405162461bcd60e51b815260206004820152600f60248201526e5f64697374696e63744f776e65727360881b6044820152606401610ca1565b5060019695505050505050565b600054610100900460ff16158080156117025750600054600160ff909116105b8061171c5750303b15801561171c575060005460ff166001145b61177f5760405162461bcd60e51b815260206004820152602e60248201527f496e697469616c697a61626c653a20636f6e747261637420697320616c72656160448201526d191e481a5b9a5d1a585b1a5e995960921b6064820152608401610ca1565b6000805460ff1916600117905580156117a2576000805461ff0019166101001790555b6117ec6040518060400160405280600b81526020016a22a0a92a24102a37b5b2b760a91b8152506040518060400160405280600581526020016408a82a4a8960db1b815250612ab5565b60005b848110156118d157600086868381811061180b5761180b613640565b90506020020160208101906118209190612e95565b6001600160a01b0381166000908152606f602052604090205490915060ff168061185157506001600160a01b038116155b1561185b57600080fd5b6001600160a01b03166000818152606f60205260408120805460ff191660019081179091556070805491820181559091527f8f6b23ffa15f0465e3176e15ca644cf24f86dc1312fe715484e3c4aead5eb78b0180546001600160a01b0319169091179055806118c98161348f565b9150506117ef565b506118dd600285613455565b6118e8906001613477565b60715562015180607855426072556079839055608180546001600160a01b0319166001600160a01b0384161790558015611958576000805461ff0019169055604051600181527f7f26b83ff96e1f2b6a682f133852f6798a09c465da95921460cefb384740249890602001610fb3565b5050505050565b336000908152603360205260409020548211156119be5760405162461bcd60e51b815260206004820152601760248201527f4e47503a206e6f7420656e6f7567682062616c616e63650000000000000000006044820152606401610ca1565b60008211611a005760405162461bcd60e51b815260206004820152600f60248201526e04e47503a20616d6f756e74203e203608c1b6044820152606401610ca1565b6001811015611a425760405162461bcd60e51b815260206004820152600e60248201526d4e47503a207465726d203e3d203160901b6044820152606401610ca1565b336000908152607d602052604090206002015415611a965760405162461bcd60e51b81526020600482015260116024820152704e47503a207374616b652065786973747360781b6044820152606401610ca1565b611aa03083611f61565b50611aab8282612ae6565b600060785460725442611abe9190613612565b611ac89190613455565b905082608460008381526020019081526020016000206000828254611aed9190613477565b9091555050604080518481526020810184905233917f1449c6dd7851abc30abf37f57715f492010519147cc2652fbc38202c18a6ee90910160405180910390a2505050565b60006060806060600060785460725442611b4c9190613612565b611b569190613455565b9050806001600160401b03811115611b7057611b70612d1b565b604051908082528060200260200182016040528015611b99578160200160208202803683370190505b509350806001600160401b03811115611bb457611bb4612d1b565b604051908082528060200260200182016040528015611bdd578160200160208202803683370190505b509250806001600160401b03811115611bf857611bf8612d1b565b604051908082528060200260200182016040528015611c21578160200160208202803683370190505b509150607254945060005b81811015611cd8576000818152608360205260409020548551869083908110611c5757611c57613640565b6020026020010181815250506084600082815260200190815260200160002054848281518110611c8957611c89613640565b6020026020010181815250506085600082815260200190815260200160002054838281518110611cbb57611cbb613640565b602090810291909101015280611cd08161348f565b915050611c2c565b505090919293565b606060378054610a0d906133e8565b336000908152606a602052604090205480611d395760405162461bcd60e51b815260206004820152600a6024820152690616d6f756e74203e20360b41b6044820152606401610ca1565b336000908152608a60205260408120607854909190611d589042613455565b815260208101919091526040016000205460ff1615611da75760405162461bcd60e51b815260206004820152600b60248201526a646179207265636569766560a81b6044820152606401610ca1565b336000908152608a6020526040812060785460019290611dc79042613455565b81526020810191909152604001600020805460ff19169115159190911790556064611df382600a61359a565b611dfd9190613455565b33600090815260876020526040812080549293508392909190611e21908490613477565b90915550611e32905081600961359a565b336000818152606a6020526040902091909155611e4f9082612836565b6040513381527ff78ef385f7cb8b9410efbec2e37ec346c24531feea7a4be70f153a40e2d49ee99060200160405180910390a150565b60003381611e93828661214b565b905083811015611ef35760405162461bcd60e51b815260206004820152602560248201527f45524332303a2064656372656173656420616c6c6f77616e63652062656c6f77604482015264207a65726f60d81b6064820152608401610ca1565b611f008286868403612329565b506001949350505050565b600080600080607354935060785460725442611f279190613612565b611f319190613455565b9250611f3c60355490565b30600090815260336020526040902054909250611f599083613612565b905090919293565b600033610a9e8185856125f9565b6001600160a01b0381166000908152607d6020526040812060020154611f93575060005b506001600160a01b03166000908152607d602052604090206001015490565b600080600080600080611fc460355490565b30600090815260336020526040902054909650611fe19087613612565b607754607b546080546081546001600160a01b0316600090815260336020526040902054999a9399929850909650945092509050565b8151602081840181018051606782529282019185019190912091905280548290811061204257600080fd5b6000918252602090912001546001600160a01b03169150829050565b600080600080600080600080600080607b5461207a919061359a565b985080607c5461208a919061359a565b607c546001600160a01b038c166000908152607d6020526040902060010154919950975042106120d7576001600160a01b038a166000908152607d602052604090206002015495506120dc565b600095505b6079546001600160a01b038b166000908152607d60209081526040808320600201546082909252822054929750955090935061211760355490565b9050801561213e5780607b54620f4240612131919061359a565b61213b9190613455565b92505b5050919395975091939597565b6001600160a01b03918216600090815260346020908152604080832093909416825291909152205490565b607354607554607454607654607854607254600091906121969042613612565b6121a09190613455565b90509091929394565b6001600160a01b03831660009081526066602052604080822090518291906121d4908690869061367b565b9081526020016040518091039020600301546000146121f757600019915061224a565b6067848460405161220992919061367b565b908152604051908190036020018120549250600a9060689061222e908790879061367b565b9081526020016040518091039020546122479190613455565b90505b935093915050565b60666020908152600092835260409092208151808301840180519281529084019290930191909120915280546001820180546001600160a01b03909216929161229a906133e8565b80601f01602080910402602001604051908101604052809291908181526020018280546122c6906133e8565b80156123135780601f106122e857610100808354040283529160200191612313565b820191906000526020600020905b8154815290600101906020018083116122f657829003601f168201915b5050505050908060020154908060030154905084565b6001600160a01b03831661238b5760405162461bcd60e51b8152602060048201526024808201527f45524332303a20617070726f76652066726f6d20746865207a65726f206164646044820152637265737360e01b6064820152608401610ca1565b6001600160a01b0382166123ec5760405162461bcd60e51b815260206004820152602260248201527f45524332303a20617070726f766520746f20746865207a65726f206164647265604482015261737360f01b6064820152608401610ca1565b6001600160a01b0383811660008181526034602090815260408083209487168084529482529182902085905590518481527f8c5be1e5ebec7d5bd14f71427d1e84f3dd0314c0f7b2291e5b200ac8c7c3b92591015b60405180910390a3505050565b6001600160a01b0382166124ae5760405162461bcd60e51b815260206004820152602160248201527f45524332303a206275726e2066726f6d20746865207a65726f206164647265736044820152607360f81b6064820152608401610ca1565b6001600160a01b038216600090815260336020526040902054818110156125225760405162461bcd60e51b815260206004820152602260248201527f45524332303a206275726e20616d6f756e7420657863656564732062616c616e604482015261636560f01b6064820152608401610ca1565b6001600160a01b03831660008181526033602090815260408083208686039055603580548790039055518581529192917fddf252ad1be2c89b69c2b068fc378daa952ba7f163c4a11628f55a4df523b3ef9101612441565b505050565b600061258b848461214b565b905060001981146125f357818110156125e65760405162461bcd60e51b815260206004820152601d60248201527f45524332303a20696e73756666696369656e7420616c6c6f77616e63650000006044820152606401610ca1565b6125f38484848403612329565b50505050565b6001600160a01b03831661265d5760405162461bcd60e51b815260206004820152602560248201527f45524332303a207472616e736665722066726f6d20746865207a65726f206164604482015264647265737360d81b6064820152608401610ca1565b6001600160a01b0382166126bf5760405162461bcd60e51b815260206004820152602360248201527f45524332303a207472616e7366657220746f20746865207a65726f206164647260448201526265737360e81b6064820152608401610ca1565b6001600160a01b038316600090815260336020526040902054818110156127375760405162461bcd60e51b815260206004820152602660248201527f45524332303a207472616e7366657220616d6f756e7420657863656564732062604482015265616c616e636560d01b6064820152608401610ca1565b6001600160a01b0380851660008181526033602052604080822086860390559286168082529083902080548601905591517fddf252ad1be2c89b69c2b068fc378daa952ba7f163c4a11628f55a4df523b3ef906127979086815260200190565b60405180910390a36125f3565b6000814211156127de576000836079546127be919061359a565b905060646127cc828761359a565b6127d69190613455565b915050610fe1565b5060009392505050565b6000607854607254426127fb9190613612565b6128059190613455565b90508160836000838152602001908152602001600020600082825461282a9190613477565b9091555061257a905083835b6001600160a01b03821661288c5760405162461bcd60e51b815260206004820152601f60248201527f45524332303a206d696e7420746f20746865207a65726f2061646472657373006044820152606401610ca1565b806035600082825461289e9190613477565b90915550506001600160a01b0382166000818152603360209081526040808320805486019055518481527fddf252ad1be2c89b69c2b068fc378daa952ba7f163c4a11628f55a4df523b3ef910160405180910390a35b5050565b60008061294c83606e546040805160609390931b6bffffffffffffffffffffffff19166020808501919091524660348501526054808501939093528151808503909301835260749093019052805191012090565b905060006040518060400160405280601c81526020017f19457468657265756d205369676e6564204d6573736167653a0a3332000000008152509050808260405160200161299b92919061368b565b6040516020818303038152906040528051906020012092505050919050565b607054815160009110156129d057506000919050565b60005b8251811015612aac57606f60008483815181106129f2576129f2613640565b6020908102919091018101516001600160a01b031682528101919091526040016000205460ff16612a265750600092915050565b60005b81811015612a9957838181518110612a4357612a43613640565b60200260200101516001600160a01b0316848381518110612a6657612a66613640565b60200260200101516001600160a01b03161415612a87575060009392505050565b80612a918161348f565b915050612a29565b5080612aa48161348f565b9150506129d3565b50600192915050565b600054610100900460ff16612adc5760405162461bcd60e51b8152600401610ca1906136ad565b6128f48282612b6e565b604051806060016040528082815260200160785483612b05919061359a565b612b0f9042613477565b81526020908101849052336000908152607d82526040808220845181559284015160018401559290920151600290910155607a805491612b4e8361348f565b919050555081607b6000828254612b659190613477565b90915550505050565b600054610100900460ff16612b955760405162461bcd60e51b8152600401610ca1906136ad565b8151612ba8906036906020850190612bb8565b50805161257a9060379060208401905b828054612bc4906133e8565b90600052602060002090601f016020900481019282612be65760008555612c2c565b82601f10612bff57805160ff1916838001178555612c2c565b82800160010185558215612c2c579182015b82811115612c2c578251825591602001919060010190612c11565b50612c38929150612c3c565b5090565b5b80821115612c385760008155600101612c3d565b60005b83811015612c6c578181015183820152602001612c54565b838111156125f35750506000910152565b60008151808452612c95816020860160208601612c51565b601f01601f19169290920160200192915050565b602081526000610fe16020830184612c7d565b80356001600160a01b0381168114612cd357600080fd5b919050565b60008060408385031215612ceb57600080fd5b612cf483612cbc565b946020939093013593505050565b600060208284031215612d1457600080fd5b5035919050565b634e487b7160e01b600052604160045260246000fd5b604051601f8201601f191681016001600160401b0381118282101715612d5957612d59612d1b565b604052919050565b600082601f830112612d7257600080fd5b81356001600160401b03811115612d8b57612d8b612d1b565b612d9e601f8201601f1916602001612d31565b818152846020838601011115612db357600080fd5b816020850160208301376000918101602001919091529392505050565b600060208284031215612de257600080fd5b81356001600160401b03811115612df857600080fd5b612e0484828501612d61565b949350505050565b60008060408385031215612e1f57600080fd5b82356001600160401b03811115612e3557600080fd5b612e4185828601612d61565b925050612e5060208401612cbc565b90509250929050565b600080600060608486031215612e6e57600080fd5b612e7784612cbc565b9250612e8560208501612cbc565b9150604084013590509250925092565b600060208284031215612ea757600080fd5b610fe182612cbc565b60008083601f840112612ec257600080fd5b5081356001600160401b03811115612ed957600080fd5b6020830191508360208260051b8501011115612ef457600080fd5b9250929050565b60006001600160401b03821115612f1457612f14612d1b565b5060051b60200190565b600082601f830112612f2f57600080fd5b81356020612f44612f3f83612efb565b612d31565b82815260059290921b84018101918181019086841115612f6357600080fd5b8286015b84811015612f8e57803560ff81168114612f815760008081fd5b8352918301918301612f67565b509695505050505050565b600082601f830112612faa57600080fd5b81356020612fba612f3f83612efb565b82815260059290921b84018101918181019086841115612fd957600080fd5b8286015b84811015612f8e5780358352918301918301612fdd565b60008060008060008060008060c0898b03121561301057600080fd5b88356001600160401b038082111561302757600080fd5b6130338c838d01612eb0565b909a50985060208b013591508082111561304c57600080fd5b6130588c838d01612eb0565b909850965060408b0135955060608b013591508082111561307857600080fd5b6130848c838d01612f1e565b945060808b013591508082111561309a57600080fd5b6130a68c838d01612f99565b935060a08b01359150808211156130bc57600080fd5b506130c98b828c01612f99565b9150509295985092959890939650565b600080600080608085870312156130ef57600080fd5b6130f885612cbc565b935060208501356001600160401b038082111561311457600080fd5b61312088838901612f1e565b9450604087013591508082111561313657600080fd5b61314288838901612f99565b9350606087013591508082111561315857600080fd5b5061316587828801612f99565b91505092959194509250565b6000806000806060858703121561318757600080fd5b84356001600160401b0381111561319d57600080fd5b6131a987828801612eb0565b909550935050602085013591506131c260408601612cbc565b905092959194509250565b600080604083850312156131e057600080fd5b50508035926020909101359150565b600081518084526020808501945080840160005b8381101561321f57815187529582019590820190600101613203565b509495945050505050565b84815260806020820152600061324360808301866131ef565b828103604084015261325581866131ef565b9050828103606084015261326981856131ef565b979650505050505050565b6000806040838503121561328757600080fd5b82356001600160401b0381111561329d57600080fd5b6132a985828601612d61565b95602094909401359450505050565b600080604083850312156132cb57600080fd5b6132d483612cbc565b9150612e5060208401612cbc565b6000806000604084860312156132f757600080fd5b61330084612cbc565b925060208401356001600160401b038082111561331c57600080fd5b818601915086601f83011261333057600080fd5b81358181111561333f57600080fd5b87602082850101111561335157600080fd5b6020830194508093505050509250925092565b6000806040838503121561337757600080fd5b61338083612cbc565b915060208301356001600160401b0381111561339b57600080fd5b6133a785828601612d61565b9150509250929050565b6001600160a01b03851681526080602082018190526000906133d590830186612c7d565b6040830194909452506060015292915050565b600181811c908216806133fc57607f821691505b6020821081141561341d57634e487b7160e01b600052602260045260246000fd5b50919050565b60008251613435818460208701612c51565b9190910192915050565b634e487b7160e01b600052601160045260246000fd5b60008261347257634e487b7160e01b600052601260045260246000fd5b500490565b6000821982111561348a5761348a61343f565b500190565b60006000198214156134a3576134a361343f565b5060010190565b600181815b808511156134e55781600019048211156134cb576134cb61343f565b808516156134d857918102915b93841c93908002906134af565b509250929050565b6000826134fc57506001610aa4565b8161350957506000610aa4565b816001811461351f576002811461352957613545565b6001915050610aa4565b60ff84111561353a5761353a61343f565b50506001821b610aa4565b5060208310610133831016604e8410600b8410161715613568575081810a610aa4565b61357283836134aa565b80600019048211156135865761358661343f565b029392505050565b6000610fe183836134ed565b60008160001904831182151516156135b4576135b461343f565b500290565b6060815260006135cc6060830186612c7d565b60208301949094525060400152919050565b6001600160a01b038416815260606020820181905260009061360290830185612c7d565b9050826040830152949350505050565b6000828210156136245761362461343f565b500390565b6000816136385761363861343f565b506000190190565b634e487b7160e01b600052603260045260246000fd5b600060ff821660ff84168060ff038211156136735761367361343f565b019392505050565b8183823760009101908152919050565b6000835161369d818460208801612c51565b9190910191825250602001919050565b6020808252602b908201527f496e697469616c697a61626c653a20636f6e7472616374206973206e6f74206960408201526a6e697469616c697a696e6760a81b60608201526080019056fea2646970667358221220a517c339040e856d0bfd1ca9f40128be86dfe8ac0ab1c479486910d42699475864736f6c63430008080033",
  "devdoc": {
    "kind": "dev",
    "methods": {
      "allowance(address,address)": {
        "details": "See {IERC20-allowance}."
      },
      "approve(address,uint256)": {
        "details": "See {IERC20-approve}. NOTE: If `amount` is the maximum `uint256`, the allowance is not updated on `transferFrom`. This is semantically equivalent to an infinite approval. Requirements: - `spender` cannot be the zero address."
      },
      "balanceOf(address)": {
        "details": "See {IERC20-balanceOf}."
      },
      "decimals()": {
        "details": "Returns the number of decimals used to get its user representation. For example, if `decimals` equals `2`, a balance of `505` tokens should be displayed to a user as `5.05` (`505 / 10 ** 2`). Tokens usually opt for a value of 18, imitating the relationship between Ether and Wei. This is the value {ERC20} uses, unless this function is overridden; NOTE: This information is only used for _display_ purposes: it in no way affects any of the arithmetic of the contract, including {IERC20-balanceOf} and {IERC20-transfer}."
      },
      "decreaseAllowance(address,uint256)": {
        "details": "Atomically decreases the allowance granted to `spender` by the caller. This is an alternative to {approve} that can be used as a mitigation for problems described in {IERC20-approve}. Emits an {Approval} event indicating the updated allowance. Requirements: - `spender` cannot be the zero address. - `spender` must have allowance for the caller of at least `subtractedValue`."
      },
      "increaseAllowance(address,uint256)": {
        "details": "Atomically increases the allowance granted to `spender` by the caller. This is an alternative to {approve} that can be used as a mitigation for problems described in {IERC20-approve}. Emits an {Approval} event indicating the updated allowance. Requirements: - `spender` cannot be the zero address."
      },
      "name()": {
        "details": "Returns the name of the token."
      },
      "symbol()": {
        "details": "Returns the symbol of the token, usually a shorter version of the name."
      },
      "totalSupply()": {
        "details": "See {IERC20-totalSupply}."
      },
      "transfer(address,uint256)": {
        "details": "See {IERC20-transfer}. Requirements: - `to` cannot be the zero address. - the caller must have a balance of at least `amount`."
      },
      "transferFrom(address,address,uint256)": {
        "details": "See {IERC20-transferFrom}. Emits an {Approval} event indicating the updated allowance. This is not required by the EIP. See the note at the beginning of {ERC20}. NOTE: Does not update the allowance if the current allowance is the maximum `uint256`. Requirements: - `from` and `to` cannot be the zero address. - `from` must have a balance of at least `amount`. - the caller must have allowance for ``from``'s tokens of at least `amount`."
      }
    },
    "version": 1
  },
  "userdoc": {
    "kind": "user",
    "methods": {},
    "version": 1
  },
  "storageLayout": {
    "storage": [
      {
        "astId": 6,
        "contract": "contracts/NGP.sol:NGP",
        "label": "_initialized",
        "offset": 0,
        "slot": "0",
        "type": "t_uint8"
      },
      {
        "astId": 9,
        "contract": "contracts/NGP.sol:NGP",
        "label": "_initializing",
        "offset": 1,
        "slot": "0",
        "type": "t_bool"
      },
      {
        "astId": 1208,
        "contract": "contracts/NGP.sol:NGP",
        "label": "__gap",
        "offset": 0,
        "slot": "1",
        "type": "t_array(t_uint256)50_storage"
      },
      {
        "astId": 187,
        "contract": "contracts/NGP.sol:NGP",
        "label": "_balances",
        "offset": 0,
        "slot": "51",
        "type": "t_mapping(t_address,t_uint256)"
      },
      {
        "astId": 193,
        "contract": "contracts/NGP.sol:NGP",
        "label": "_allowances",
        "offset": 0,
        "slot": "52",
        "type": "t_mapping(t_address,t_mapping(t_address,t_uint256))"
      },
      {
        "astId": 195,
        "contract": "contracts/NGP.sol:NGP",
        "label": "_totalSupply",
        "offset": 0,
        "slot": "53",
        "type": "t_uint256"
      },
      {
        "astId": 197,
        "contract": "contracts/NGP.sol:NGP",
        "label": "_name",
        "offset": 0,
        "slot": "54",
        "type": "t_string_storage"
      },
      {
        "astId": 199,
        "contract": "contracts/NGP.sol:NGP",
        "label": "_symbol",
        "offset": 0,
        "slot": "55",
        "type": "t_string_storage"
      },
      {
        "astId": 779,
        "contract": "contracts/NGP.sol:NGP",
        "label": "__gap",
        "offset": 0,
        "slot": "56",
        "type": "t_array(t_uint256)45_storage"
      },
      {
        "astId": 2469,
        "contract": "contracts/NGP.sol:NGP",
        "label": "daySupply",
        "offset": 0,
        "slot": "101",
        "type": "t_uint256"
      },
      {
        "astId": 2476,
        "contract": "contracts/NGP.sol:NGP",
        "label": "userMints",
        "offset": 0,
        "slot": "102",
        "type": "t_mapping(t_address,t_mapping(t_string_memory_ptr,t_struct(MintInfo)2467_storage))"
      },
      {
        "astId": 2481,
        "contract": "contracts/NGP.sol:NGP",
        "label": "userApplys",
        "offset": 0,
        "slot": "103",
        "type": "t_mapping(t_string_memory_ptr,t_array(t_address)dyn_storage)"
      },
      {
        "astId": 2485,
        "contract": "contracts/NGP.sol:NGP",
        "label": "degreeHeats",
        "offset": 0,
        "slot": "104",
        "type": "t_mapping(t_string_memory_ptr,t_uint256)"
      },
      {
        "astId": 2490,
        "contract": "contracts/NGP.sol:NGP",
        "label": "userNumbers",
        "offset": 0,
        "slot": "105",
        "type": "t_mapping(t_address,t_array(t_string_storage)dyn_storage)"
      },
      {
        "astId": 2494,
        "contract": "contracts/NGP.sol:NGP",
        "label": "withdrawAmount",
        "offset": 0,
        "slot": "106",
        "type": "t_mapping(t_address,t_uint256)"
      },
      {
        "astId": 2498,
        "contract": "contracts/NGP.sol:NGP",
        "label": "unWithDrawAmount",
        "offset": 0,
        "slot": "107",
        "type": "t_mapping(t_address,t_uint256)"
      },
      {
        "astId": 2502,
        "contract": "contracts/NGP.sol:NGP",
        "label": "rankWithdrawAmount",
        "offset": 0,
        "slot": "108",
        "type": "t_mapping(t_address,t_uint256)"
      },
      {
        "astId": 2506,
        "contract": "contracts/NGP.sol:NGP",
        "label": "minters",
        "offset": 0,
        "slot": "109",
        "type": "t_mapping(t_address,t_bool)"
      },
      {
        "astId": 2508,
        "contract": "contracts/NGP.sol:NGP",
        "label": "spendNonce",
        "offset": 0,
        "slot": "110",
        "type": "t_uint256"
      },
      {
        "astId": 2512,
        "contract": "contracts/NGP.sol:NGP",
        "label": "isOwner",
        "offset": 0,
        "slot": "111",
        "type": "t_mapping(t_address,t_bool)"
      },
      {
        "astId": 2515,
        "contract": "contracts/NGP.sol:NGP",
        "label": "owners",
        "offset": 0,
        "slot": "112",
        "type": "t_array(t_address)dyn_storage"
      },
      {
        "astId": 2517,
        "contract": "contracts/NGP.sol:NGP",
        "label": "required",
        "offset": 0,
        "slot": "113",
        "type": "t_uint256"
      },
      {
        "astId": 2519,
        "contract": "contracts/NGP.sol:NGP",
        "label": "genesisTs",
        "offset": 0,
        "slot": "114",
        "type": "t_uint256"
      },
      {
        "astId": 2521,
        "contract": "contracts/NGP.sol:NGP",
        "label": "activeMinters",
        "offset": 0,
        "slot": "115",
        "type": "t_uint256"
      },
      {
        "astId": 2523,
        "contract": "contracts/NGP.sol:NGP",
        "label": "activeNumbers",
        "offset": 0,
        "slot": "116",
        "type": "t_uint256"
      },
      {
        "astId": 2525,
        "contract": "contracts/NGP.sol:NGP",
        "label": "claimMints",
        "offset": 0,
        "slot": "117",
        "type": "t_uint256"
      },
      {
        "astId": 2527,
        "contract": "contracts/NGP.sol:NGP",
        "label": "maxMeshHeats",
        "offset": 0,
        "slot": "118",
        "type": "t_uint256"
      },
      {
        "astId": 2529,
        "contract": "contracts/NGP.sol:NGP",
        "label": "destructions",
        "offset": 0,
        "slot": "119",
        "type": "t_uint256"
      },
      {
        "astId": 2531,
        "contract": "contracts/NGP.sol:NGP",
        "label": "SECONDS_IN_DAY",
        "offset": 0,
        "slot": "120",
        "type": "t_uint256"
      },
      {
        "astId": 2540,
        "contract": "contracts/NGP.sol:NGP",
        "label": "apy",
        "offset": 0,
        "slot": "121",
        "type": "t_uint256"
      },
      {
        "astId": 2542,
        "contract": "contracts/NGP.sol:NGP",
        "label": "activeStakes",
        "offset": 0,
        "slot": "122",
        "type": "t_uint256"
      },
      {
        "astId": 2544,
        "contract": "contracts/NGP.sol:NGP",
        "label": "totalNGPStaked",
        "offset": 0,
        "slot": "123",
        "type": "t_uint256"
      },
      {
        "astId": 2546,
        "contract": "contracts/NGP.sol:NGP",
        "label": "totalEarn",
        "offset": 0,
        "slot": "124",
        "type": "t_uint256"
      },
      {
        "astId": 2551,
        "contract": "contracts/NGP.sol:NGP",
        "label": "userStakes",
        "offset": 0,
        "slot": "125",
        "type": "t_mapping(t_address,t_struct(StakeInfo)2538_storage)"
      },
      {
        "astId": 2555,
        "contract": "contracts/NGP.sol:NGP",
        "label": "dayClaims",
        "offset": 0,
        "slot": "126",
        "type": "t_mapping(t_uint256,t_uint256)"
      },
      {
        "astId": 2559,
        "contract": "contracts/NGP.sol:NGP",
        "label": "dayClaimed",
        "offset": 0,
        "slot": "127",
        "type": "t_mapping(t_uint256,t_bool)"
      },
      {
        "astId": 2561,
        "contract": "contracts/NGP.sol:NGP",
        "label": "treasuryValue",
        "offset": 0,
        "slot": "128",
        "type": "t_uint256"
      },
      {
        "astId": 2563,
        "contract": "contracts/NGP.sol:NGP",
        "label": "FoundationAddr",
        "offset": 0,
        "slot": "129",
        "type": "t_address"
      },
      {
        "astId": 2567,
        "contract": "contracts/NGP.sol:NGP",
        "label": "stakeValues",
        "offset": 0,
        "slot": "130",
        "type": "t_mapping(t_address,t_uint256)"
      },
      {
        "astId": 2571,
        "contract": "contracts/NGP.sol:NGP",
        "label": "dayReceived",
        "offset": 0,
        "slot": "131",
        "type": "t_mapping(t_uint256,t_uint256)"
      },
      {
        "astId": 2575,
        "contract": "contracts/NGP.sol:NGP",
        "label": "dayStaked",
        "offset": 0,
        "slot": "132",
        "type": "t_mapping(t_uint256,t_uint256)"
      },
      {
        "astId": 2579,
        "contract": "contracts/NGP.sol:NGP",
        "label": "dayUnStaked",
        "offset": 0,
        "slot": "133",
        "type": "t_mapping(t_uint256,t_uint256)"
      },
      {
        "astId": 2583,
        "contract": "contracts/NGP.sol:NGP",
        "label": "unWithdraws",
        "offset": 0,
        "slot": "134",
        "type": "t_mapping(t_address,t_uint256)"
      },
      {
        "astId": 2587,
        "contract": "contracts/NGP.sol:NGP",
        "label": "userWithdraws",
        "offset": 0,
        "slot": "135",
        "type": "t_mapping(t_address,t_uint256)"
      },
      {
        "astId": 2593,
        "contract": "contracts/NGP.sol:NGP",
        "label": "totalWithDraws",
        "offset": 0,
        "slot": "136",
        "type": "t_mapping(t_string_memory_ptr,t_mapping(t_address,t_uint256))"
      },
      {
        "astId": 2599,
        "contract": "contracts/NGP.sol:NGP",
        "label": "totalUnWithDraws",
        "offset": 0,
        "slot": "137",
        "type": "t_mapping(t_string_memory_ptr,t_mapping(t_address,t_uint256))"
      },
      {
        "astId": 2605,
        "contract": "contracts/NGP.sol:NGP",
        "label": "dayReceivedAmount",
        "offset": 0,
        "slot": "138",
        "type": "t_mapping(t_address,t_mapping(t_uint256,t_bool))"
      }
    ],
    "types": {
      "t_address": {
        "encoding": "inplace",
        "label": "address",
        "numberOfBytes": "20"
      },
      "t_array(t_address)dyn_storage": {
        "base": "t_address",
        "encoding": "dynamic_array",
        "label": "address[]",
        "numberOfBytes": "32"
      },
      "t_array(t_string_storage)dyn_storage": {
        "base": "t_string_storage",
        "encoding": "dynamic_array",
        "label": "string[]",
        "numberOfBytes": "32"
      },
      "t_array(t_uint256)45_storage": {
        "base": "t_uint256",
        "encoding": "inplace",
        "label": "uint256[45]",
        "numberOfBytes": "1440"
      },
      "t_array(t_uint256)50_storage": {
        "base": "t_uint256",
        "encoding": "inplace",
        "label": "uint256[50]",
        "numberOfBytes": "1600"
      },
      "t_bool": {
        "encoding": "inplace",
        "label": "bool",
        "numberOfBytes": "1"
      },
      "t_mapping(t_address,t_array(t_string_storage)dyn_storage)": {
        "encoding": "mapping",
        "key": "t_address",
        "label": "mapping(address => string[])",
        "numberOfBytes": "32",
        "value": "t_array(t_string_storage)dyn_storage"
      },
      "t_mapping(t_address,t_bool)": {
        "encoding": "mapping",
        "key": "t_address",
        "label": "mapping(address => bool)",
        "numberOfBytes": "32",
        "value": "t_bool"
      },
      "t_mapping(t_address,t_mapping(t_address,t_uint256))": {
        "encoding": "mapping",
        "key": "t_address",
        "label": "mapping(address => mapping(address => uint256))",
        "numberOfBytes": "32",
        "value": "t_mapping(t_address,t_uint256)"
      },
      "t_mapping(t_address,t_mapping(t_string_memory_ptr,t_struct(MintInfo)2467_storage))": {
        "encoding": "mapping",
        "key": "t_address",
        "label": "mapping(address => mapping(string => struct NGP.MintInfo))",
        "numberOfBytes": "32",
        "value": "t_mapping(t_string_memory_ptr,t_struct(MintInfo)2467_storage)"
      },
      "t_mapping(t_address,t_mapping(t_uint256,t_bool))": {
        "encoding": "mapping",
        "key": "t_address",
        "label": "mapping(address => mapping(uint256 => bool))",
        "numberOfBytes": "32",
        "value": "t_mapping(t_uint256,t_bool)"
      },
      "t_mapping(t_address,t_struct(StakeInfo)2538_storage)": {
        "encoding": "mapping",
        "key": "t_address",
        "label": "mapping(address => struct NGP.StakeInfo)",
        "numberOfBytes": "32",
        "value": "t_struct(StakeInfo)2538_storage"
      },
      "t_mapping(t_address,t_uint256)": {
        "encoding": "mapping",
        "key": "t_address",
        "label": "mapping(address => uint256)",
        "numberOfBytes": "32",
        "value": "t_uint256"
      },
      "t_mapping(t_string_memory_ptr,t_array(t_address)dyn_storage)": {
        "encoding": "mapping",
        "key": "t_string_memory_ptr",
        "label": "mapping(string => address[])",
        "numberOfBytes": "32",
        "value": "t_array(t_address)dyn_storage"
      },
      "t_mapping(t_string_memory_ptr,t_mapping(t_address,t_uint256))": {
        "encoding": "mapping",
        "key": "t_string_memory_ptr",
        "label": "mapping(string => mapping(address => uint256))",
        "numberOfBytes": "32",
        "value": "t_mapping(t_address,t_uint256)"
      },
      "t_mapping(t_string_memory_ptr,t_struct(MintInfo)2467_storage)": {
        "encoding": "mapping",
        "key": "t_string_memory_ptr",
        "label": "mapping(string => struct NGP.MintInfo)",
        "numberOfBytes": "32",
        "value": "t_struct(MintInfo)2467_storage"
      },
      "t_mapping(t_string_memory_ptr,t_uint256)": {
        "encoding": "mapping",
        "key": "t_string_memory_ptr",
        "label": "mapping(string => uint256)",
        "numberOfBytes": "32",
        "value": "t_uint256"
      },
      "t_mapping(t_uint256,t_bool)": {
        "encoding": "mapping",
        "key": "t_uint256",
        "label": "mapping(uint256 => bool)",
        "numberOfBytes": "32",
        "value": "t_bool"
      },
      "t_mapping(t_uint256,t_uint256)": {
        "encoding": "mapping",
        "key": "t_uint256",
        "label": "mapping(uint256 => uint256)",
        "numberOfBytes": "32",
        "value": "t_uint256"
      },
      "t_string_memory_ptr": {
        "encoding": "bytes",
        "label": "string",
        "numberOfBytes": "32"
      },
      "t_string_storage": {
        "encoding": "bytes",
        "label": "string",
        "numberOfBytes": "32"
      },
      "t_struct(MintInfo)2467_storage": {
        "encoding": "inplace",
        "label": "struct NGP.MintInfo",
        "members": [
          {
            "astId": 2460,
            "contract": "contracts/NGP.sol:NGP",
            "label": "user",
            "offset": 0,
            "slot": "0",
            "type": "t_address"
          },
          {
            "astId": 2462,
            "contract": "contracts/NGP.sol:NGP",
            "label": "number",
            "offset": 0,
            "slot": "1",
            "type": "t_string_storage"
          },
          {
            "astId": 2464,
            "contract": "contracts/NGP.sol:NGP",
            "label": "updateTs",
            "offset": 0,
            "slot": "2",
            "type": "t_uint256"
          },
          {
            "astId": 2466,
            "contract": "contracts/NGP.sol:NGP",
            "label": "withdrawTs",
            "offset": 0,
            "slot": "3",
            "type": "t_uint256"
          }
        ],
        "numberOfBytes": "128"
      },
      "t_struct(StakeInfo)2538_storage": {
        "encoding": "inplace",
        "label": "struct NGP.StakeInfo",
        "members": [
          {
            "astId": 2533,
            "contract": "contracts/NGP.sol:NGP",
            "label": "term",
            "offset": 0,
            "slot": "0",
            "type": "t_uint256"
          },
          {
            "astId": 2535,
            "contract": "contracts/NGP.sol:NGP",
            "label": "maturityTs",
            "offset": 0,
            "slot": "1",
            "type": "t_uint256"
          },
          {
            "astId": 2537,
            "contract": "contracts/NGP.sol:NGP",
            "label": "amount",
            "offset": 0,
            "slot": "2",
            "type": "t_uint256"
          }
        ],
        "numberOfBytes": "96"
      },
      "t_uint256": {
        "encoding": "inplace",
        "label": "uint256",
        "numberOfBytes": "32"
      },
      "t_uint8": {
        "encoding": "inplace",
        "label": "uint8",
        "numberOfBytes": "1"
      }
    }
  }
}